:1000000016EF00F0EA6A060EE96EEF500EE00F0EF2
:10001000016E006A002EFED7012EFBD78F0E006EF8
:10002000002EFED70000EF2EF2D7000CF86AD09E0B
:10003000EA6AE96AC150C00B0F09C16E070EB46EBF
:10004000C150C00B0F09C16EC090C092C094C09E39
:10005000C280C69A949E93809392010EC66E000E43
:10006000C76ED190800ED56ECD6A000ECA6E000E9E
:10007000CB6E9484BD6AB76AB66A070EB46E9250AE
:10008000926E270E006E002EFED700D0B450A19CB9
:10009000000E936E936A8A6A040E056EFA0E066E5F
:1000A000B1DF052EFBD7936AFF0E8A6E040E056E34
:0E00B000FA0E066EA7DF052EFBD7ECD7030075
:020000040030CA
:0E00000024CE390E0087A1000FC00FE00F4084
:00000001FF
;PIC18F4550
;CRC=3443  CREATED="16-ago-15 13:07"
