:1000000016EF00F0EA6A070EE96EEF500EE00F0EF1
:10001000016E006A002EFED7012EFBD78F0E006EF8
:10002000002EFED70000EF2EF2D7000CF86AD09E0B
:10003000EA6AE96AC150C00B0F09C16E070EB46EBF
:10004000C150C00B0F09C16EC090C092C094C09E39
:10005000C2809698C69A949E93809392010EC66E23
:10006000000EC76ED190800ED56ECD6A000ECA6E9E
:10007000000ECB6E070EB46E9250926E270E006E7D
:10008000002EFED700D0B450A19CB56A000E926E2F
:10009000946E956E010E056E0550020815E3946A84
:1000A0008B6A020E066EFA0E076EACDF062EFBD7C9
:1000B000946AFF0E8B6E020E066EFA0E076EA2DFBA
:1000C000062EFBD7052AE8D7946A8B6A926AFE0E41
:1000D000896E956AC00E8C6E020E066EFA0E076E61
:1000E00091DF062EFBD7956AF90E8C6E020E066E16
:1000F000FA0E076E87DF062EFBD7956AA40E8C6E6C
:10010000020E066EFA0E076E7DDF062EFBD7956A8D
:10011000B00E8C6E020E066EFA0E076E73DF062EA0
:10012000FBD7956A990E8C6E020E066EFA0E076E5C
:1001300069DF062EFBD7956A920E8C6E020E066E54
:10014000FA0E076E5FDF062EFBD7956A820E8C6E65
:10015000020E066EFA0E076E55DF062EFBD7956A65
:10016000D80E8C6E020E066EFA0E076E4BDF062E50
:10017000FBD7956A800E8C6E020E066EFA0E076E25
:1001800041DF062EFBD7956A900E8C6E020E066E2E
:10019000FA0E076E37DF062EFBD7956A880E8C6E37
:1001A000020E066EFA0E076E2DDF062EFBD7956A3D
:1001B000830E8C6E020E066EFA0E076E23DF062E7D
:1001C000FBD7956AC60E8C6E020E066EFA0E076E8F
:1001D00019DF062EFBD7956AA10E8C6E020E066EF5
:1001E000FA0E076E0FDF062EFBD7956A860E8C6E11
:1001F000020E066EFA0E076E05DF062EFBD7956A15
:100200008E0E8C6E020E066EFA0E076EFBDE062E4A
:06021000FBD75FD70300DD
:020000040030CA
:0E000000200E390E0087810000400FE00F40F7
:00000001FF
;PIC18F4550
;CRC=6F1E  CREATED="01-ene-15 21:44"
