:1000000002308A00112A00000A108A100A118207A1
:10001000063401340B340234173404342D340834DC
:100020000A108A100A118207263401344B34023434
:10003000973404342D3409340A108A100A118207C7
:100040004A34013493340234313405344D340A34A3
:100050000A108A100A1182075D340134BA3402345E
:1000600075340534EA340A340A108A100A118207FA
:1000700088340134103403342034063440340C34D2
:100080003F3084000008031952280230A100A0016B
:10009000A00B4828A10B47289730A000A00B4E28A2
:1000A000800B45280800831857284A308400A00197
:1000B000A101A201A301CA01CB01CC01CD014908D4
:1000C000480447044604031995282030CE00031045
:1000D000C20DC30DC40DC50DCA0DCB0DCC0DCD0D7C
:1000E00049084D02031D7E2848084C02031D7E2846
:1000F00047084B02031D7E2846084A02031C8F282E
:100100004608CA024708031C470FCB024808031CD5
:10011000480FCC024908031C490FCD020314A00D5F
:10012000A10DA20DA30DCE0B67284A088000840AFA
:100130004B088000840A4C088000840A4D08800027
:100140000800A101A201A001A3013D08031DAB28E5
:100150003C080319C5281030BE000310BA0DBB0DB2
:10016000A00DA30D3D082302031DB8283C08200262
:10017000031CC1283C08A002031CA3033D08A302E2
:100180000314A10DA20DBE0BAD280800BE013B0853
:100190003E020318D028FA30BF004020BE0AC7280C
:1001A0003A08BF004020BE013D083E020318DF2888
:1001B000A630A000A00BDA280000BE0AD4283C0814
:1001C000BF000830BF02031CF0283F30840003103A
:1001D000800C00080319F028EE280000800BED28A1
:1001E00008008310C5010F30C4004230C300403006
:1001F000C200C901C8012908C7002808C600532049
:100200002308BD002208BC002108BB002008BA005A
:100210000310BD0CBC0CBB0CBA0C0A303A02AC008B
:100220003B08AD000030031C0130AD023C08AE00BD
:100230000030031C0130AE023D08AF000030031C4B
:100240000130AF0283102F08C5002E08C4002D080E
:10025000C3002C08C200C901C8010330C700E83040
:10026000C60053202108B1002008B0003108BB00AF
:100270003008BA00BD01FA30BC00A1202108B50049
:100280003108BB003008BA00BD01FA30BC00A12023
:100290002008B60083143A3084002F08C5002E08C9
:1002A000C4002D08C3002C08C200C901C8010330D6
:1002B000C700E830C60053203B08B3003A08B2003C
:1002C0003308BB003208BA00BD01FA30BC00A120DF
:1002D0002108B4003308BB003208BA00BD01FA306F
:1002E000BC00A1202008B700BD01BC012B08BB0049
:1002F0002A08BA003D08C1003C08C0003B08BF0006
:100300003A08BE00C501C4010330C300E830C20092
:100310002030CA00C601C701C801C9014108A300B5
:100320004008A2003F08A1003E08A0000310201CC6
:10033000A7294208C60743080318430FC707440804
:100340000318440FC80745080318450FC907C90C0F
:10035000C80CC70CC60CA30CA20CA10CA00CCA0B99
:1003600096292308BD002208BC002108BB002008F4
:10037000BA008310C5010F30C4004230C3004030C2
:10038000C200C901C8012908C7002808C6005320B7
:100390002308C1002208C0002108BF002008BE00B9
:1003A00083103D08C5003C08C4003B08C3003A0860
:1003B000C2002308C9002208C8002108C70020087D
:1003C000C60053202108B9002008B8003908A3004E
:1003D00038080319B903B803BA002308BB00BA08E8
:1003E000031DF529BB080319102A3608BA00350881
:1003F000BB003708BC003408BD00C62083160510BA
:10040000831205143608BA003508BB003708BC0053
:100410003408BD00C6208316051083120510E62996
:10042000080084011F308305713083168F000F0888
:100430008312A4011F1383161F109F101F119F11F9
:10044000073083129900713083168F000F088312D2
:100450001F1383161F109F101F119F111F129F1231
:100460001F1383129F171F1483160108C7390838FA
:100470008100831290010030A10006389200FF3005
:100480008316920005158312950107309900831693
:100490000508850006308312A000A00B4D2A00003D
:1004A00019088C11A40A2408033C0319A4010C3078
:1004B000A600FA30BF004020A60B592AA501250846
:1004C000013C031CA42A0310240DA600260A1C20AC
:1004D000A30026081C20A6002308A700A9002608C0
:1004E000A800AB016430AA00F1206430BF004020B6
:1004F0000310240DA600260A1C20A30026081C2099
:10050000A6002308A700A9002608A800AB016430B4
:10051000AA00F1206430BF0040200310240DA60083
:10052000260A1C20A30026081C20A6002308A700DA
:10053000A9002608A800AB01C830AA00F120C830E5
:10054000BF004020A50A5F2A0310240DA600260A3A
:100550001C20A30026081C20A6002308A700A90031
:100560002608A800AB016430AA00F1206430BF0067
:1005700040200310240DA600260A3420A3002608DC
:100580003420A6002308A700A9002608A800AB0174
:100590006430AA00F1206430BF0040200310240D15
:1005A000A600260A0420A30026080420A60023088B
:1005B000A700A9002608A800AB016430AA00F1201A
:1005C0006430BF0040200310240DA600260A10202E
:1005D000A30026081020A6002308A700A9002608CB
:1005E000A800AB013230AA00F1206430BF004020E7
:1005F0000310240DA600260A1C20A30026081C2098
:10060000A6002308A700A9002608A800AB01C8304F
:10061000AA00F120C830BF0040200310240DA6001E
:10062000260A2820A30026082820A6002308A700C1
:10063000A9002608A800AB016430AA00F1206430AC
:10064000BF0040200310240DA600260A2820A30086
:1006500026082820A6002308A700A9002608A8002D
:10066000AB016430AA00F1206430BF0040200310C9
:10067000240DA600260A2820A30026082820A6006C
:100680002308A700A9002608A800AB016430AA002F
:10069000F1206430BF0040200310240DA600260A7C
:1006A0002820A30026082820A6002308A700A900C8
:1006B0002608A800AB013230AA00F1206430BF0048
:1006C00040200310240DA600260A2820A300260897
:1006D0002820A6002308A700A9002608A800AB012F
:1006E0006430AA00F1206430BF0040200310240DC4
:1006F000A600260A1C20A30026081C20A60023080A
:10070000A700A9002608A800AB016430AA00F120C8
:100710006430BF0040200310240DA600260A1C20D0
:10072000A30026081C20A6002308A700A90026086D
:10073000A800AB013230AA00F1200310240DA6005E
:10074000260A1C20A30026081C20A6002308A700B8
:10075000A9002608A800AB013230AA00F1206430BD
:10076000BF0040200310240DA600260A1C20A30071
:1007700026081C20A6002308A700A9002608A80018
:10078000AB016430AA00F1206430BF0040200310A8
:10079000240DA600260A1020A30026081020A6007B
:1007A0002308A700A9002608A800AB016430AA000E
:1007B000F1206430BF0040200310240DA600260A5B
:1007C0001020A30026081020A6002308A700A900D7
:1007D0002608A800AB016430AA00F1206430BF00F5
:1007E00040200310240DA600260A1C20A300260882
:1007F0001C20A6002308A700A9002608A800AB011A
:100800006430AA00F1206430BF0040200310240DA2
:10081000A600260A1020A30026081020A600230800
:10082000A700A9002608A800AB01C830AA00F12043
:10083000C830BF0040200310240DA600260A342033
:10084000A30026083420A6002308A700A900260834
:10085000A800AB01C830AA00F120C830BF0040207A
:10086000A5012508013C031C762C0310240DA600CD
:10087000260A1C20A30026081C20A6002308A70087
:10088000A9002608A800AB016430AA00F12064305A
:10089000BF0040200310240DA600260A1C20A30040
:1008A00026081C20A6002308A700A9002608A800E7
:1008B000AB016430AA00F1206430BF004020031077
:1008C000240DA600260A1C20A30026081C20A60032
:1008D0002308A700A9002608A800AB01C830AA0079
:1008E000F120C830BF004020A50A312C0310240D90
:1008F000A600260A1C20A30026081C20A600230808
:10090000A700A9002608A800AB016430AA00F120C6
:100910006430BF0040200310240DA600260A3420B6
:10092000A30026083420A6002308A700A900260853
:10093000A800AB016430AA00F1206430BF00402061
:100940000310240DA600260A0420A3002608042074
:10095000A6002308A700A9002608A800AB01643060
:10096000AA00F1206430BF0040200310240DA6002F
:10097000260A1020A30026081020A6002308A7009E
:10098000A9002608A800AB013230AA00F12064308B
:10099000BF0040200310240DA600260A1C20A3003F
:1009A00026081C20A6002308A700A9002608A800E6
:1009B000AB01C830AA00F120C830BF0040200310AE
:1009C000240DA600260A2820A30026082820A60019
:1009D0002308A700A9002608A800AB016430AA00DC
:1009E000F1206430BF0040200310240DA600260A29
:1009F0002820A30026082820A6002308A700A90075
:100A00002608A800AB016430AA00F1206430BF00C2
:100A100040200310240DA600260A2820A300260843
:100A20002820A6002308A700A9002608A800AB01DB
:100A30006430AA00F1206430BF0040200310240D70
:100A4000A600260A2820A30026082820A60023089E
:100A5000A700A9002608A800AB016430AA00F12075
:100A60006430BF0040200310240DA600260A282071
:100A7000A30026082820A6002308A700A90026080E
:100A8000A800AB016430AA00F1206430BF00402010
:100A90000310240DA600260A1C20A30026081C20F3
:100AA000A6002308A700A9002608A800AB0164300F
:100AB000AA00F1206430BF0040200310240DA600DE
:100AC000260A1C20A30026081C20A6002308A70035
:100AD000A9002608A800AB016430AA00F120643008
:100AE000BF0040200310240DA600260A1C20A300EE
:100AF00026081C20A6002308A700A9002608A80095
:100B0000AB013230AA00F1200310240DA600260A02
:100B10001C20A30026081C20A6002308A700A9006B
:100B20002608A800AB013230AA00F1206430BF00D3
:100B300040200310240DA600260A3420A300260816
:100B40003420A6002308A700A9002608A800AB01AE
:100B50006430AA00F1206430BF0040200310240D4F
:100B6000A600260A3420A30026083420A600230865
:100B7000A700A9002608A800AB016430AA00F12054
:100B80006430BF0040200310240DA600260A282050
:100B9000A30026082820A6002308A700A9002608ED
:100BA000A800AB016430AA00F1206430BF004020EF
:100BB0000310240DA600260A1020A30026081020EA
:100BC000A6002308A700A9002608A800AB016430EE
:100BD000AA00F1206430BF0040200310240DA600BD
:100BE000260A0420A30026080420A6002308A70044
:100BF000A9002608A800AB01C830AA00F120C8301F
:080C0000BF004020522A6300EE
:02400E00C430BC
:00000001FF
;PIC12F683
;CRC=2478  CREATED="10-dic-15 18:57"
