:1000000070EF09F06896000C046ED8CF05F0E0CFD1
:1000100006F00001E9CF0CF0EACF07F0E1CF08F0DD
:10002000E2CF09F0D9CF0AF0DACF0BF0F3CF12F01C
:10003000F4CF13F0FACF14F0F5CF15F0F6CF16F099
:10004000F7CF17F000C00EF001C00FF002C010F0A3
:1000500003C011F0A0AA30EF00F0A1BAC9EF07F079
:100060000EC000F00FC001F010C002F011C003F08C
:100070000CC0E9FF07C0EAFF078E08C0E1FF09C016
:10008000E2FF0AC0D9FF0BC0DAFF12C0F3FF13C0B2
:10009000F4FF14C0FAFF15C0F5FF16C0F6FF17C035
:1000A000F7FF045006C0E0FF05C0D8FF1000F76A54
:1000B000BE0FF66E000EF7220900F5501200000385
:1000C00002FFFFFFFFFFFFFFFFFFFFFFFFFFF76ADA
:1000D000DE0FF66E000EF7220900F550120000FF49
:1000E00002FFFFFFFFFFFFFFFFFFFFFFFFFFF76ABA
:1000F000FE0FF66E000EF7220900F55012004000C8
:1001000008004000000000000000000000000000A7
:100110000000000000000000000000000000F76A7E
:100120002E0FF66E010EF7220900F5501200400066
:10013000000040000000000000000000000000007F
:100140000000000000000000000000000000F76A4E
:100150005E0FF66E010EF7220900F550120009023B
:100160004300020100803209040000010202010084
:1001700005240010010424020205240600010524C0
:10018000010001070581030800FA09040100020AC1
:10019000000000070502024000010705820240003E
:1001A0000100F76AB20FF66E010EF7220900F55052
:1001B00012000200F76AC40FF66E010EF722090062
:1001C000F550120012171B20FFFFFFFFF76ADC0F2C
:1001D000F66E010EF7220900F5501200120110010F
:1001E0000200004061043300000101020001F76ACF
:1001F000FE0FF66E010EF7220900F55012000403FF
:10020000090408034300430053001803530045004A
:100210005200490041004C002000440045004D00C0
:100220004F006D92699468A402D06894FCD7D5EF12
:1002300007F0400E0401016F040E036F180E026FE9
:10024000880E006F046B040E076F580E066F0001D6
:10025000000C70A002D0EDDF7090689ADEEF07F01E
:100260006A6A6892E4EF07F0AA91A9BFAA81A99FE0
:10027000A951100803E2000E016E17D0AAA10BD0FD
:10028000036AA95114DFFF0802E1000E01D0010E3C
:10029000016E0BD00AD0036AA95119DFFF0802E1F1
:1002A000000E01D0010E016E00D0000CAE51B00363
:1002B000F3CF01F0F4CF00F0B103F3500026AF51BB
:1002C000B003F3500020026E000C036AA851700FB7
:1002D000E96E0F0E0320EA6EEF6AA8C0A9F0C4DF32
:1002E000015222E0AF6BA8C0AEF0B16B080EB06F48
:1002F000DDDF01C0E9FF040E0224EA6EEF6AAF6B96
:10030000A8C0AEF0B16B080EB06FD0DF02C0AAF08B
:1003100001C0A9F0040EA927000EAA23A9C0E9FF75
:10032000040EAA25EA6EEF6A000C010EA76FA75112
:100330000F0805E3A7C0A8F0C8DFA72BF8D7000C6B
:100340002C6A2B6A250E2A6E800E296E2D6A2E6A63
:10035000080E2F6E7E6B7D91316A306A796B7A91CF
:10036000000C9D6B9D5101080AE3036A9D51270F04
:10037000E96E000E0320EA6EEF6A9D2BF3D7E0DFF3
:100380001B6A010E1C6E1A6A000C6A6A686A9F0E6C
:100390006B6E3D0E696E6E6AC8DFE3DF160E706E1F
:1003A00068A602D02FDEFCD76D9843DF030E226EC5
:1003B000EAEF07F0698468986D82F0EF07F0689CB7
:1003C000F6EF07F0A2C023F0000CFF0E236E000C26
:1003D000A06B265226E0A0513F0823E31D5005E004
:1003E000020A08E0010A0BE00FD0036A2550AFDED5
:1003F000A16F0AD0036A2550FADEA16F05D0036A07
:100400002550E4DEA16F00D0252A2606A051A02B9E
:10041000580FE96E040EEA6ED8B0EA2AA1C0EFFFC9
:10042000D8D7265204E1A051400801E01A6AA0C0C2
:10043000A2F0C8DF000C256A1D6A04011B51010AE5
:10044000000107E0030A0AE0010A0BE0220A1BE0B0
:100450002BD0120E266E030E1D6E28D0430E266E74
:1004600025D0020E1D6E036A04011A511E0FE96E9B
:10047000000E0320EA6EEFCF25F0036A255000013D
:10048000B6DE266E13D0036A04011A51000192DE13
:10049000256E253C01D006D0036A255058DE266E15
:1004A00005D002D092DF0ED090DF0CD004011F5394
:1004B00005E126501E5D02E21EC426F0010E1A6EF2
:1004C000000186DF86EF03F09F5304E1040E226EE5
:1004D0002CDFC9D0050E226E040EA26F980EA16FFC
:1004E000010EA06FA0510F08D8A0BDD0A0C0A8F0E9
:1004F000ECDEA36B036AA051EADDFF0859E0040EAD
:10050000A36FD890A035036A0ADE0900F5CF03F087
:10051000A46F03C0A5F0AF6BA0C0AEF0B16B080E26
:10052000B06FC4DE01C0A7F0010E0124016E000E01
:100530000220036E01C0E9FF040E0324EA6EA4C08A
:10054000EFFFAF6BA0C0AEF0B16B080EB06FAEDEC8
:1005500001C0A7F0020E0124016E000E0220036EFE
:1005600001C0E9FF040E0324EA6EA2C0ECFFED52C5
:10057000A1C0EFFFD890A035036AD1DD0900F5CF07
:1005800003F0A1270350A223880EA66FA5B1A68170
:10059000A5B3A683AF6BA0C0AEF0B16B080EB06F71
:1005A00085DE01C0E9FF040E0224EA6EA6C0EFFF5B
:1005B000036AA0517CDDFF0840E0A383AF6BA0C0BD
:1005C000AEF0B16B080EB06F71DE02C0A8F001C0D2
:1005D000A7F0040EA727000EA823020EA725016E80
:1005E000000EA821036E01C0E9FF040E0324EA6E89
:1005F000A2C0ECFFED52A1C0EFFFD890A035036A76
:1006000076DD0900F5CF03F0A1270350A223AF6BDD
:10061000A0C0AEF0B16B080EB06F48DE02C0A8F00B
:1006200001C0A7F0040EA727000EA823A7C0E9FF6A
:10063000040EA825EA6E400EEF6EA351060802E1F3
:100640000E0EA36F036AA05132DD0108D8A4A3895E
:10065000036AA051700FE96E0F0E0320EA6EA3C06B
:10066000EFFFA02B3FD780EF03F004011951000AE0
:1006700000010DE0010A14E0020A1EE0060A27E06C
:10068000030A2CE00E0A2CE0010A30E03DD01CC029
:1006900058F40401596B020E0001A26F93DE36D0AC
:1006A00004011A2D06D0010E1C160001A26B8ADE71
:1006B00002D000018ADE2AD004011A2D05D01C8246
:1006C0000001A26B7FDE02D000017FDE1FD0020E90
:1006D0001A6E1AC424F0A26B75DE18D0ACD616D0F0
:1006E0001BC058F4010EA26F6DDE10D004011A5128
:1006F000010808E31AC41BF01AC49FF00001E4D6F5
:10070000A26B60DE000102D060DE00D0FAEF04F0E0
:100710001BC09FF004011951000A000105E00A0AFC
:100720000BE0010A26E037D00401586B596B020E2A
:100730000001A26F47DE31D09F5319E0010E9F5D8B
:10074000036A2FDD016E04011C5DD8A002D00001F8
:100750000ED0036A1C51270FE96E000E0320EA6ECB
:10076000EFCF58F4010E0001A26F2CDE01D02DDE78
:1007700014D09F530EE0036A04011C51270FE96E49
:10078000000E0320EA6E1AC4EFFF0001A26B1ADE0E
:1007900001D01BDE02D019DE00D0FAEF04F0A091E8
:1007A0009FBFA0819F9FA0A117D0AF6B9FC0AEF04D
:1007B000B16B080EB06F7ADD02C0A2F001C0A1F0EB
:1007C000040EA127000EA223A1C0E9FF040EA2255A
:1007D000EA6E880EEF6E0DD0AF6B9FC0AEF0B16BBE
:1007E000080EB06F63DD01C0E9FF040E0224EA6E5B
:1007F000EF6A6FEF04F0A0919FBFA0819F9FA0A11F
:1008000017D0AF6B9FC0AEF0B16B080EB06F4EDD6E
:1008100002C0A2F001C0A1F0040EA127000EA22385
:10082000A1C0E9FF040EA225EA6E840EEF6E0ED081
:10083000AF6B9FC0AEF0B16B080EB06F37DD01C07B
:10084000E9FF040E0224EA6E840EEF6E75EF04F0E9
:10085000A0919FBFA0819F9FA0A117D0AF6B9FC009
:10086000AEF0B16B080EB06F21DD02C0A3F001C085
:10087000A2F0040EA227000EA323A2C0E9FF040EDB
:10088000A325EA6EEFCFA1F00ED0AF6B9FC0AEF004
:10089000B16B080EB06F0ADD01C0E9FF040E02243F
:1008A000EA6EEFCFA1F0A1AF02D0A1B502D0000E49
:1008B00001D0010E016E7FEF04F01CC4A9F0D4DC5E
:1008C000015229E004011951010A000105E0020A60
:1008D00009E0030A0DE01DD01CC49FF060D7A26B95
:1008E00071DD19D01CC49FF086D7A26B6BDD13D0CD
:1008F0000401586B596B1CC49FF00001A9D7015229
:1009000004E0010E0401586F0001020EA26F5ADDCF
:1009100002D05BDD00D0FAEF04F0FE0E236E000C77
:1009200004011C2D01D002D01C5349E11951000AC9
:1009300000010BE0010A0DE0210A1CE0010A1FE0A2
:10094000030A2EE0010A31E037D0010E806FE5DFA7
:1009500035D0040EEA6E580EE96EE26A320EE16E90
:10096000080E016EE6CFEEFF012EFCD71EC4A2F0EA
:1009700029DD24D0020E806F7D81CFDF1FD0040ED1
:10098000EA6E580EE96EE26A290EE16E070E016EFC
:10099000E6CFEEFF012EFCD7070EA26F13DD0ED0BF
:1009A0001AC47EF0A26B0EDD09D01AC431F01BC44C
:1009B00030F0A26B07DD02D008DD00D00401000199
:1009C000FAEF04F01A6A040118517F0B000A0001C3
:1009D00007E0010A07E0030A07E0230A07E008D05E
:1009E00044D608D095D606D068D704D099D702D07F
:1009F000ECDC00D01EEF07F0AF6BA0C0AEF0B16B27
:100A0000080EB06F53DC01C0E9FF040E0224EA6E49
:100A1000EFCFA2F0A151020806E1A2AD02D0A16B76
:100A200002D0010EA16FA151030819E1840EA26F3B
:100A3000AF6BA0C0AEF0B16B080EB06F37DC02C078
:100A4000A6F001C0A5F0040EA527000EA623A5C0A0
:100A5000E9FF040EA625EA6E840EEF6E07D0A12DE5
:100A600003D0C80EA26F02D0880EA26FD890A03516
:100A7000036A8FEC00F00900F5CF03F0A36F03C009
:100A8000A4F0AF6BA0C0AEF0B16B080EB06F0EDC7F
:100A900001C0A5F0010E0124016E000E0220036EBC
:100AA00001C0E9FF040E0324EA6EA3C0EFFFA4B166
:100AB000A281A4B3A283AF6BA0C0AEF0B16B080E4D
:100AC000B06F56EC01F001C0E9FF040E0224EA6E9B
:100AD000A2C0EFFF000C036AAD51700FE96E0F0E5C
:100AE0000320EA6EEF5219E0AF6BADC0AEF0B16B10
:100AF000080EB06F56EC01F002C0AFF001C0AEF0CE
:100B0000040EAE27000EAF23AEC0E9FF040EAF25E2
:100B1000EA6EEFCFAEF0AEAF02D0000E01D0010E04
:100B2000016E000CA8C0ADF0D6DF0152D8B47CD065
:100B3000AF6BA8C0AEF0B16B080EB06F56EC01F011
:100B400002C0AEF001C0ADF0040EAD27000EAE2322
:100B5000010EAD25016E000EAE21036E01C0E9FF4E
:100B6000040E0324EA6EA9C0EFFFAB5102081EE198
:100B7000AF6BA8C0AEF0B16B080EB06F56EC01F0D1
:100B800002C0AEF001C0ADF0040EAD27000EAE23E2
:100B9000ADC0E9FF040EAE25EA6EEFCFACF0ACAD10
:100BA00002D0AB6B02D0010EAB6F18D0AB51040872
:100BB00015E1AF6BA8C0AEF0B16B080EB06F56EC8C
:100BC00001F001C0E9FF040E0224EA6EEFCFACF0A1
:100BD000ACAD03D0010EAB6F01D0AB6BAB2D03D02E
:100BE000C80EAC6F02D0880EAC6FAAB1AC81AAB3AC
:100BF000AC83AF6BA8C0AEF0B16B080EB06F56EC13
:100C000001F002C0AEF001C0ADF0040EAD27000E41
:100C1000AE23ADC0E9FF040EAE25EA6EACC0EFFF17
:100C2000010E016E03D000D0000E016E000C805149
:100C3000010A03E0030A13E024D0EA6A320EE96EE7
:100C4000040EE26E180EE16E080E016EE6CFEEFFA6
:100C5000012EFCD7A26BE2EC01F0806B14D0EA6AA3
:100C6000290EE96E040EE26E180EE16E070E016E9B
:100C7000E6CFEEFF012EFCD7806BA26BE2EC01F019
:100C800002D0806B00D078EF06F0AF6BA0C0AEF062
:100C9000B16B080EB06F56EC01F002C0A2F001C0BB
:100CA000A1F0010E0124016E000E0220036E01C0AE
:100CB000E9FF040E0324EA6E036AEFCF01F003C0DC
:100CC00002F06EEF06F07A91020EA06FA16F94DE33
:100CD000000C7A817C6B020EA06FD7D701C07BF02D
:100CE0007B5301E1F0DF7DEF06F09F5302E19FD7D8
:100CF00004D09F51020801E1ECD7000CA0C06EFFA8
:100D0000A05303E0040E226E02D0020E226E8EEF7C
:100D100006F01B6A1A6A24C0A0F0F0D7FDEF06F0B7
:100D2000A0C0ADF0D8DE015246E0AF6BA0C0AEF07F
:100D3000B16B080EB06F56EC01F002C0A9F001C013
:100D4000A8F0040EA827000EA923020EA825016E04
:100D5000000EA921036E01C0E9FF040E0324EA6E10
:100D6000ECCF03F0ED52EFCFA6F003C0A7F0A7C081
:100D7000EAFFA6C0E9FFA2C0E2FFA1C0E1FFA4C054
:100D800002F0A3C001F0015202E0022A02D0025296
:100D900006E0E6CFEEFF012EFCD7022EFAD7A0C068
:100DA000A8F0A4C0AAF0A3C0A9F0A5C0ABF0BADE19
:100DB000015003D000D0000E016E000C020EA06F97
:100DC000A26B3A0EA16FA46B79C0A3F0020EA56FBF
:100DD000A7DF79C07FF0796B000C795301E0EEDF7B
:100DE00002EF07F09F530AE11A2C03D0E8EC01F060
:100DF00004D01A50020801E18CD704D09F51020898
:100E000001E1EBD7000C21309D6F9D339D331F0E08
:100E10009D17215242E1040100513C0B00019E6FDD
:100E2000430E0401001700019E5134081EE1040125
:100E30000451800B01E0046B0001C4D56D98233C84
:100E400005D0A06B030EA16FD7DD0ED0A06B020EF4
:100E5000A16FD2DD2350FE0807E0A86BAA6B23C068
:100E6000A9F0040EAB6F5EDE17D09E51040814E1AA
:100E70009F6B3BDFA06B020EA16FBEDD2350FE080F
:100E80000AE0233C01D007D0A86BAA6B23C0A9F0CD
:100E9000010EAB6F47DE00D07AD02150040814E178
:100EA000430E04010417FF0E236E00019F6B9ADFAF
:100EB000233C01D008D0A86BAA6B23C0A9F0020E76
:100EC000AB6F30DE00D063D021B42AD0AF6B9DC0B1
:100ED000AEF0B16B080EB06F56EC01F001C09FF0A0
:100EE00001C001F0040E0224036E01C09FF0A06F48
:100EF000AF6B9DC0AEF0B16B080EB06F56EC01F059
:100F000001C0E9FF040E0224EA6EEF50430BA0C0BB
:100F1000EAFF9FC0E9FFEF6E9DC09FF0E6DE37D08D
:100F2000AF6B9DC0AEF0B16B080EB06F56EC01F028
:100F300002C0A0F001C09FF0040E9F27000EA02366
:100F40009FC001F0040EA025036E9FC09FF0A06F0C
:100F5000AF6B9DC0AEF0B16B080EB06F56EC01F0F8
:100F600002C0A2F001C0A1F0040EA127000EA2232E
:100F7000A1C0E9FF040EA225EA6EEF50430BA0C00A
:100F8000EAFF9FC0E9FFEF6E9DC09FF02BDF00EFEF
:100F900008F0A19A225201E139D0685237E068A4E2
:100FA00004D069A402D011EF01F06DA201D02ED0BF
:100FB00068AA04D069AA02D029EF01F068A204D07F
:100FC00069A202D030EF01F068A004D069A002D07D
:100FD000C5EF01F068A804D069A802D0DAEF01F0EB
:100FE00068AC04D069AC02D0DFEF01F09C6B68A65E
:100FF00008D069A606D06CCF21F002EC00F003D730
:1010000001D004D09C519C2B0308F1E230EF00F09A
:10101000436861723A202563207C20496E743A202F
:101020002575207C204865783A20255800004368C3
:1010300061723A202563207C20496E743A20257520
:10104000207C204865783A2025580000000E926EDA
:10105000936E946E956E966E926A896A936A8A6AA6
:10106000946A8B6A956A8C6A966A8D6AADEF09F00C
:10107000EA6A850EE96EEF5011E0060E016EBF0EB2
:10108000006E0400002EFDD7012EF9D77A0E006EF7
:10109000002EFED700D00400EF2EEFD7000C1B501F
:1010A000016EC6EF09F0196AF2BE198EF29EB1EC1C
:1010B00001F019BEF28E6D6A140E6F6E696A6D864C
:1010C000010E226E67EF08F06DB601D0ECD7222C2E
:1010D0000BD06DBA09D0686A696AA08AC00EF21294
:1010E000110E696E020E226E000C7AB101D0FDD78E
:1010F0007C517C2BA00FE96E040EEA6ED8B0EA2A70
:10110000EFCF84F07B517C5D07E3196AF2BE198E44
:10111000F29ED9DD19BEF28E84C001F0CDEF09F048
:101120008A91F2BE8A81F29E79513E0802E23E0E19
:10113000796F7951792B036A3A0FE96E000E03201B
:10114000EA6E89C0EFFFF29E8AB1F28EABEF08F033
:1011500088C089F0E5D7196AF2BE198EF29E020E98
:10116000AD6FB9DC19BEF28E015207E0196AF2BE0A
:10117000198EF29E23DE19BEF28ED8EF08F0795157
:101180003E0813E2196AF2BE198EF29E020EAD6F8E
:10119000A2DC19BEF28E015207E0196AF2BE198E66
:1011A000F29E0CDE19BEF28EEAD787C088F0D0D747
:1011B000000C0900F6CF85F0F7CF86F0F5CF87F069
:1011C000DEDF85C0F6FF86C0F7FF842FF2D7000C64
:1011D0008751016A865D03E286C000F00CD0006A88
:1011E000080E886F863700368751005CD8B0006ED5
:1011F0000136882FF7D7000C015084C086F0640EAA
:10120000876FE6DF00C084F00150300E07E185A350
:101210000CD085B70AD085B9200E03D08597859963
:101220008581012601C087F0AADF84C086F00A0EFE
:10123000876FCEDF00C084F00150300E06E185B725
:1012400008D085A106D085B9200E012601C087F0FF
:1012500096DF300E842784C087F091DF000C85BFB5
:101260000FD00F0E006E843900160A0E005C03E2E8
:10127000300E002602D08551002600C087F07FDFA7
:101280000F0E84170A0E845D02E2300E02D0859F95
:101290008551842784C087F072DF000C6D6A696A0B
:1012A000080E6F6E94503009946E226A196AF2BE6D
:1012B000198EF29EB1EC01F019BEF28E61EF09F0C9
:1012C000EDD764EF09F0FCD7FFDE22500208FCE105
:1012D00053EF0AF01B5202E10400FCD755EF0AF06D
:1012E000F86AD09E078EEA6AE96A226A266A796BF2
:1012F000806BC150C00B0F09C16E070EB46E1E6A21
:10130000040E1F6E0C0E206EC150C00B0F09C16E73
:10131000C090C092C094C09EC280C69A949E938092
:101320009392010EC66E000EC76ED190800ED56EE0
:10133000CD6A000ECA6E000ECB6E9484BD6AB76A89
:10134000B66A070EB46E9250926E0400100E006ED4
:10135000002EFED7B450A19C79D6826B8251020830
:1013600014E389889298020E846FFA0E856F80DEEE
:10137000842FFBD789989298020E846FFA0E856F9E
:1013800077DE842FFBD7822BE9D789D60152D8B4D8
:1013900085D09ADE7AA181D0A8D601C081F081C023
:1013A00087F0EDDE8151400A13E0250A40E0200A73
:1013B0003EE0240A3FE0200A3DE0350A3EE0200AF4
:1013C0003CE0650A3DE0030A3FE0010A41E065D0E8
:1013D000210E836F100EF66E100EF76E060E846FE0
:1013E000E8DE83C087F0CBDE180EF66E100EF76EC7
:1013F000080E846FDEDE83C084F01B0E856FFCDE7A
:10140000220EF66E100EF76E080E846FD2DE83C0C9
:1014100084F0370E856F23DF0A0E876FB0DE0D0E66
:10142000876FADDE832B83517F08D4E136D0898866
:10143000929833D08998929830D0929889782DD00C
:10144000400E876F9CDE29D0400E876F98DE25D036
:10145000400E836F2E0EF66E100EF76E060E846F22
:10146000A8DE83C087F08BDE360EF66E100EF76EA8
:10147000080E846F9EDE83C084F01B0E856FBCDE79
:10148000400EF66E100EF76E080E846F92DE83C06B
:1014900084F0370E856FE3DE00D009D089989298EA
:1014A000A0EC01F010D710DE15D7898892986DD77F
:0214B000030037
:020000040030CA
:0E00000024CC280E0083A1000FC00FE00F409B
:00000001FF
;PIC18F4550
;CRC=8F21  CREATED="29-oct-15 23:25"
