:1000000000308A00292800000130650000306600B9
:10001000831685018312850183168601831286016A
:100020005528223084008313000803192828013042
:10003000F800BF30F7006400F70B1B28F80B1928F5
:100040004A30F700F70B222800006400800B1728C5
:100050000800840183131F30830583168E15073033
:1000600083129F0083160108C739083881000108F0
:10007000F03981006400831290010030F800920092
:1000800000308316920086158312970107309F0077
:1000900083160508850064000230F700F70B4E2830
:1000A000512883121F080C13042883160514831289
:1000B000051C762864008316061083120610013092
:1000C000A0002008373C031C68286300A00A6128B0
:1000D00083160610831206140130A0002008383C55
:1000E000031C75286300A00A6E288C28831606104E
:1000F000831206100230A100FA30A2001120A10BD9
:100100007C2883160610831206140230A100FA30F0
:0C011000A2001120A10B872855286300D5
:02400E00541E3E
:00000001FF
;PIC16F628A
;CRC=889D  CREATED="25-jul-14 10:26"
