:1000000001308A00D5290000831808284730840071
:10001000A001A101A201A301C701C801C901CA0130
:100020004608450444044304031946282030CB0005
:100030000310BF0DC00DC10DC20DC70DC80DC90DF8
:10004000CA0D46084A02031D2F2845084902031D10
:100050002F2844084802031D2F2843084702031C89
:1000600040284308C7024408031C440FC80245083F
:10007000031C450FC9024608031C460FCA0203149D
:10008000A00DA10DA20DA30DCB0B182847088000D1
:10009000840A48088000840A49088000840A4A08C3
:1000A00080000800A101A201A001A3013A08031DDC
:1000B0005C283908031976281030BB000310B70DEF
:1000C000B80DA00DA30D3A082302031D69283908B5
:1000D0002002031C72283908A002031CA3033A085B
:1000E000A3020314A10DA20DBB0B5E2808003C3037
:1000F00084000008031989280230A100A001A00B88
:100100007F28A10B7E289730A000A00B8528800BAC
:100110007C280800BB0138083B0203189428FA30F9
:10012000BC007720BB0A8B283708BC007720BB01B6
:100130003A083B020318A328A630A000A00B9E2873
:100140000000BB0A98283908BC000830BC02031C18
:10015000B4283C3084000310800C00080319B42834
:10016000B2280000800BB12808008310C2010F30B4
:10017000C1004230C0004030BF00C601C5012608A2
:10018000C4002508C30004202308BA002208B900CF
:100190002108B8002008B7000310BA0CB90CB80C3D
:1001A000B70C0A303702A9003808AA000030031C37
:1001B0000130AA023908AB000030031C0130AB0249
:1001C0003A08AC000030031C0130AC0283102C084C
:1001D000C2002B08C1002A08C0002908BF00C601C0
:1001E000C5010330C400E830C30004202108AE007C
:1001F0002008AD002E08B8002D08B700BA01FA306B
:10020000B90052202108B2002E08B8002D08B7000E
:10021000BA01FA30B90052202008B30083143730F5
:1002200084002C08C2002B08C1002A08C00029083D
:10023000BF00C601C5010330C400E830C30004207C
:100240003808B0003708AF003008B8002F08B700F2
:10025000BA01FA30B90052202108B1003008B800C4
:100260002F08B700BA01FA30B90052202008B400B4
:10027000BA01B9012808B8002708B7003A08BE003B
:100280003908BD003808BC003708BB00C201C101F5
:100290000330C000E830BF002030C700C301C401F4
:1002A000C501C6013E08A3003D08A2003C08A1000C
:1002B0003B08A0000310201C6B293F08C30740081F
:1002C0000318400FC40741080318410FC50742082F
:1002D0000318420FC607C60CC50CC40CC30CA30CF4
:1002E000A20CA10CA00CC70B5A292308BA002208A3
:1002F000B9002108B8002008B7008310C2010F30F0
:10030000C1004230C0004030BF00C601C501260810
:10031000C4002508C30004202308BE002208BD0035
:100320002108BC002008BB0083103A08C20039082D
:10033000C1003808C0003708BF002308C6002208E3
:10034000C5002108C4002008C30004202108B6000D
:100350002008B5003608A30035080319B603B50315
:10036000B7002308B800B708031DB929B808031956
:10037000D4293308B7003208B8003408B90031086E
:10038000BA008A2083160510831205143308B700BB
:100390003208B8003408B9003108BA008A20831640
:1003A000051083120510AA29080084011F30830557
:1003B000713083168F000F0883121F1383161F10CE
:1003C0009F101F119F1107308312990071308316FF
:1003D0008F000F0883121F1383161F109F101F1109
:1003E0009F111F129F121F1383129F171F14831632
:1003F0000108C73908388100831290010030A1003C
:1004000006389200FF30831692000515831295017D
:100410000730990083160508850006308312A00076
:10042000A00B102A000019088C1183168514831262
:10043000851C222A0230A6000B30A500A8016430DA
:10044000A700B520831605158312051D2F2A02303B
:10045000A6004B30A500A8016430A700B520831684
:1004600085158312851D3C2A0230A6009330A50015
:10047000A8016430A700B520831605168312051E57
:10048000492A0230A600E430A500A8016430A70084
:10049000B520831685168312851E562A0330A600C2
:1004A0003F30A500A8016430A700B520572A152ABF
:0204B0006300E7
:02400E00C430BC
:00000001FF
;PIC12F683
;CRC=0243  CREATED="18-ago-15 21:23"
