:100000007EEF01F0F76A140FF66E000EF72209007A
:10001000F5501200280C0106EA6A110EE96EEF5045
:100020000DE0060E016E006A002EFED7012EFBD7F2
:100030007B0E006E002EFED7EF2EF3D7000C18B00B
:1000400002D08A9001D08A80939018B202D08A920E
:1000500001D08A82939218B402D08A9401D08A8403
:10006000939418B602D08A9601D08A86939600009F
:100070008C8E959E030E006E002EFED78C9E959E54
:10008000000C196A9380000E81B0010E1912938240
:10009000000E81B2010E006ED89000360050191289
:1000A0009384000E81B4010E006E00360036FC0E03
:1000B0000016005019129386000E81B6010E006ED4
:1000C000003600360036F80E00160050191219C01E
:1000D00001F0000C93809382938493868C8C959C82
:1000E00000008C8E959E0000CCDF01C018F08C9E25
:1000F000959E00008C8E959E00D000D00000C1DF40
:1001000001C017F08C9E959E939093929394939632
:100110001838006EF00E001600501710016E97EFA1
:1001200000F0959E959A959C8C9A959AD3D701C08C
:1001300017F001BEFBD7155202E18C9A01D08C8AD0
:10014000959A00008C9C959C00008C9E959E16387C
:10015000176E0F0E171617C018F071DF16500F0B21
:10016000176E186E6CDF000C939093929394939695
:10017000959E959A959C8C9A959A8C9C959C8C9E14
:10018000959E0F0E116E48DF010E076E0750030893
:100190000AE3030E186E53DF186A51DF050E116E65
:1001A0003BDF072AF3D7020E186E49DF186A47DFD4
:1001B000050E116E31DF076A0750030809E3036A71
:1001C000075020DF086E156A166EABDF072AF4D7DA
:1001D000B1EF01F0122C01D003D0400E136E01D00C
:1001E000136A010E115C132613508009146E156AF0
:1001F000166E97DF000C1050070A07E00B0A0AE0A2
:10020000060A10E0020A14E018D0010E116E126EF8
:10021000E1DF19D0156A010E166E83DF020E116E32
:10022000FBDE11D0010E116E020E126ED3DF0BD069
:10023000156A100E166E75DF06D0010E156E10C011
:1002400016F06FDF00D0000CEACF0FF0E9CF0EF010
:100250000838F0090A6E0A26E20F0B6E320F0D6E97
:1002600008500F0B0B260B260D26E90F0C6E0C26E3
:100270000C2607380F0B0C260D260C360D360D1EDE
:100280000D3607500F0B0D260A36070E096E0A0EA3
:100290000C060D26FDE30B060C26FDE30A060B26D5
:1002A000FDE309060A26FDE3EA6A090EE96E070E78
:1002B0000E140E9CE9260D0EE95CD8B40E8CEF509E
:1002C000006E08E10EBC06D00EB813D00EB602D0F8
:1002D000200E03D00E860E98300E0026EACF08F0CE
:1002E000E9CF07F000C010F086DF08C0EAFF07C0C2
:1002F000E9FFEE500EACDFD7C4EF01F0F86AD09EF4
:10030000EA6AE96AC150C00B0F09C16E070EB46EEC
:10031000C150C00B0F09C16EC090C092C094C09E66
:10032000C280C69A949E93809392010EC66E000E70
:10033000C76ED190800ED56ECD6A000ECA6E000ECB
:10034000CB6E9484BD6AB76AB66A070EB46E9250DB
:10035000926E100E006E002EFED70000B450A19CCD
:1003600003D7066A056A010E116E126E33DF6E0E38
:10037000106E41DF3D0E106E3EDF100EE96E06C0BE
:1003800008F005C007F060D795988C78040E076ECA
:10039000FA0E116E41DE072EFBD7052AD8B4062AC5
:0403A000E2D703009D
:020000040030CA
:0E00000024CC390E0007A1000FC00FE00F4006
:00000001FF
;PIC18F4550
;CRC=3CC2  CREATED="21-ene-15 17:45"
