:1000000016EF00F0EA6A210EE96EEF500EE00F0ED7
:10001000016E006A002EFED7012EFBD78F0E006EF8
:10002000002EFED70000EF2EF2D7000CF86AD09E0B
:10003000EA6AE96AC150C00B0F09C16E070EB46EBF
:10004000C150C00B0F09C16EC090C092C094C09E39
:10005000C2809698C69A949E93809392010EC66E23
:10006000000EC76ED190800ED56ECD6A000ECA6E9E
:10007000000ECB6E070EB46E9250926E270E006E7D
:10008000002EFED700D0B450A19CB56A000E926E2F
:100090000F0E936E000E946E956E050E056E066A39
:1000A000FE0E0E6EFD0E0F6EFB0E106EF70E116E35
:1000B000EF0E126EDF0E136E010E1E6EC00E146E6A
:1000C000F90E156EA40E166EB00E176E990E186E00
:1000D000920E196E820E1A6ED80E1B6E800E1C6E5A
:1000E000980E1D6E066A206A010E216E8BDF055088
:1000F000FA0F3FE2060F01EF01F0036A0D50140FF3
:10010000E96E000E0320EA6EEFCF1FF032D0036AD3
:100110000C50140FE96E000E0320EA6EEFCF1FF0B3
:1001200028D0036A0B50140FE96E000E0320EA6E0C
:10013000EFCF1FF01ED0036A0A50140FE96E000EB5
:100140000320EA6EEFCF1FF014D0036A0950140F9A
:10015000E96E000E0320EA6EEFCF1FF00AD0036AAB
:100160000850140FE96E000E0320EA6EEFCF1FF067
:1001700000D0938681A60ED02050C7080BE2062A35
:10018000206A036A0750080FE96E000E0320EA6E2A
:1001900006C0EFFF938481A40FD02050C7080CE263
:1001A000036A0750080FE96E000E0320EA6E06C0CE
:1001B000EFFF072A206A066A956A1FC08CFF036A50
:1001C00005500E0FE96E000E0320EA6EEFCF21F00E
:1001D000926A21C089FF010E216E14DF052A0650A4
:1001E0000908D8A0066A05500508D8A0056A20505D
:1001F000C808D8B0202A07500508D8A0076A77D7C2
:100200000300E824F76AF7361D0FF66E020EF72298
:100210000A00F550FA6E0800F550F96EFA000E016A
:08022000220136014A015E01D2
:020000040030CA
:0E000000200E390E0087810000400FE00F40F7
:00000001FF
;PIC18F4550
;CRC=8A32  CREATED="02-ene-15 17:14"
