:0400000014EF02F007
:08000800046ED8CF05F0E0CF33
:1000100006F00001E9CF0CF0EACF07F0E1CF08F0DD
:10002000E2CF09F0D9CF0AF0DACF0BF0F3CF12F01C
:10003000F4CF13F0FACF14F0F5CF15F0F6CF16F099
:10004000F7CF17F000C00EF001C00FF002C010F0A3
:1000500003C011F09DA430EF00F09EB461EF00F0FA
:100060000EC000F00FC001F010C002F011C003F08C
:100070000CC0E9FF07C0EAFF078E08C0E1FF09C016
:10008000E2FF0AC0D9FF0BC0DAFF12C0F3FF13C0B2
:10009000F4FF14C0FAFF15C0F5FF16C0F6FF17C035
:1000A000F7FF045006C0E0FF05C0D8FF1000F76A54
:1000B000BE0FF66E000EF7220900F5501200280C54
:1000C00001061D2A1D50040817E1192A19500A08B3
:1000D00012E11A2A196A1A503C080BE11B2A1A6A03
:1000E0001B503C0806E11C2A1B6A1C50180801E240
:1000F0001C6A95968C761D6A9E9430EF00F04162E2
:10010000726168616D2020416775696C61720000E1
:1001100025753A25753A25753A2575202020200049
:10012000EA6A230EE96EEF500EE00F0E016E006AD0
:10013000002EFED7012EFBD78F0E006E002EFED7AD
:100140000000EF2EF2D7000C2AB002D08A9001D026
:100150008A8093902AB202D08A9201D08A829392A6
:100160002AB402D08A9401D08A8493942AB602D009
:100170008A9601D08A86939600008C8E959E070EF3
:10018000006E002EFED700D08C9E959E000C2B6A30
:100190009380000E81B0010E2B129382000E81B26B
:1001A000010E006ED890003600502B129384000E82
:1001B00081B4010E006E00360036FC0E00160050B1
:1001C0002B129386000E81B6010E006E00360036AB
:1001D0000036F80E001600502B122BC001F0000C58
:1001E00093809382938493868C8C959C00008C8E54
:1001F000959E0000CCDF01C02AF08C9E959E0000E9
:100200008C8E959E030E006E002EFED700D0BFDFB1
:1002100001C029F08C9E959E93909392939493960F
:100220002A38006EF00E001600502910016E1FEFE4
:1002300001F0959E959A959C8C9A959AD1D701C07C
:1002400029F001BEFBD7275202E18C9A01D08C8A9B
:10025000959A00008C9C959C00008C9E959E283859
:10026000296E0F0E291629C02AF06EDF28500F0BB9
:10027000296E2A6E69DF000C939093929394939663
:10028000959E959A959C8C9A959A8C9C959C8C9E03
:10029000959E0F0E236E44DF010E1F6E1F50030844
:1002A0000AE3030E2A6E50DF2A6A4EDF050E236E24
:1002B00037DF1F2AF3D7020E2A6E46DF2A6A44DF91
:1002C000050E236E2DDF1F6A1F50030809E3036A22
:1002D0001F50EDDE206E276A286EABDF1F2AF4D791
:1002E00033EF02F0242C01D003D0400E256E01D054
:1002F000256A010E235C252625508009266E276A73
:10030000286E97DF000C2250070A07E00B0A0AE06C
:10031000060A10E0020A14E018D0010E236E246EC3
:10032000E1DF19D0276A010E286E83DF020E236EEB
:10033000F7DE11D0010E236E020E246ED3DF0BD038
:10034000276A100E286E75DF06D0010E276E22C0B8
:1003500028F06FDF00D0000C0900F5520CE0F6CF5A
:100360001FF0F7CF20F0F5CF22F0CDDF1FC0F6FF52
:1003700020C0F7FFF1D761EF02F02250016A215C43
:1003800003E221C000F00CD0006A080E236E213673
:1003900000362250005CD8B0006E0136232EF7D70D
:1003A000000C01501FC021F0640E226EE6DF00C079
:1003B0001FF00150300E07E120A20CD020B60AD069
:1003C00020B8200E03D0209620982080012601C05E
:1003D00022F099DF1FC021F00A0E226ECEDF00C08E
:1003E0001FF00150300E06E120B608D020A006D044
:1003F00020B8200E012601C022F085DF300E1F2616
:100400001FC022F080DF000C0900F6CF20F0F7CFEC
:1004100021F0F5CF22F077DF20C0F6FF21C0F7FFF3
:100420001F2EF2D78AEF02F0F86AD09E078EEA6A92
:10043000E96A196A1A6A030E1B6E140E1C6E1D6A95
:10044000C150C00B0F09C16E070EB46EC00EF21280
:100450009D84920EBF6E7C0EBE6E0B0EBD6E300E76
:10046000CD6EB16A09D7CD80030E006E002EFED787
:1004700000D0D8901A30010F1E6E1E5011080AE2EB
:100480001E50210807E3110E1E5C006ED890003646
:1004900000501E5E1E5001080AE2010E1E5C1F6E17
:1004A000236E010E246E1EDF200E226E2CDF1EC076
:1004B00023F0010E246E16DFFE0EF66E000EF76EB0
:1004C0004BD7040E236E020E246E0CDF1CC01FF0EF
:1004D0001B0E206E66DF3A0E226E15DF1BC01FF06A
:1004E0001B0E206E5EDF3A0E226E0DDF1AC01FF06B
:1004F0001B0E206E56DF3A0E226E05DF19C01FF06C
:100500001B0E206E4EDF1B0EF66E010EF76E040EF4
:080510001F6E7AD7A9D7030082
:020000040030CA
:0E00000024CE1E0E0007A10000C00FE00F402E
:00000001FF
;PIC18F4550
;CRC=FD71  CREATED="27-ene-15 18:14"
