:1000000016EF00F0EA6A070EE96EEF500EE00F0EF1
:10001000016E006A002EFED7012EFBD78F0E006EF8
:10002000002EFED70000EF2EF2D7000CF86AD09E0B
:10003000EA6AE96AC150C00B0F09C16E070EB46EBF
:10004000C150C00B0F09C16EC090C092C094C09E39
:10005000C2809698C69A949E93809392010EC66E23
:10006000000EC76ED190800ED56ECD6A000ECA6E9E
:10007000000ECB6E070EB46E9250926E270E006E7D
:10008000002EFED700D0B450A19CB56A000E946E2D
:10009000010E056E0550040815E3946A8B6A020E82
:1000A000066EFA0E076EAEDF062EFBD7946AFF0EC1
:1000B0008B6E020E066EFA0E076EA4DF062EFBD7BD
:1000C000052AE8D7946A8B6A938681B601D0FCD75B
:1000D0008B8094901E0E076E95DF938681A601D0CB
:1000E000FCD71E0E076E8EDF938681B601D0FCD73B
:1000F0008B9094901E0E076E85DF938681A601D0AB
:0C010000FCD71E0E076E7EDFDFD7030069
:020000040030CA
:0E000000200E390E0087810000400FE00F40F7
:00000001FF
;PIC18F4550
;CRC=40E4  CREATED="01-ene-15 20:14"
