:020000040000FA
:0400080010EF10F0F5
:0800180000EF20F0FFFFFFFFE5
:10002000FFFFFFFFFFFFFFFFFFFFFFFFFFFFFFFFE0
:10003000FFFFFFFFFFFFFFFFFFFFFFFFFFFFFFFFD0
:10004000FFFFFFFFFFFFFFFFFFFFFFFFFFFFFFFFC0
:10005000FFFFFFFFFFFFFFFFFFFFFFFFFFFFFFFFB0
:10006000FFFFFFFFFFFFFFFFFFFFFFFFFFFFFFFFA0
:0A007000FFFFFFFFFFFFFFFFFFFF90
:10200000009C3000003100923100383200D43200A0
:10201000703300AC3300FC3F0000689C12001200DB
:10202000D8CFE5FFE0CFE5FFE56EF3CFE5FFF4CFD6
:10203000E5FFE9CFE5FFEACFE5FFFACFE5FFFBCF0C
:10204000E5FFD9CFE5FFE1CFD9FFF6CFE5FFF7CF29
:10205000E5FFF8CFE5FFF5CFE5FF0BEC2EF0E4CF81
:10206000F5FFE4CFF8FFE4CFF7FFE4CFF6FFE4CFCE
:10207000D9FFE4CFFBFFE4CFFAFFE4CFEAFFE4CFE0
:10208000E9FFE4CFF4FFE4CFF3FFE450E4CFE0FF57
:10209000E4CFD8FF1000D9CFE5FFE1CFD9FF00C0D2
:1020A000E5FF01C0E5FF02C0E5FF03C0E5FF04C096
:1020B000E5FF05C0E5FF06C0E5FF07C0E5FF08C076
:1020C000E5FF09C0E5FF0AC0E5FF0BC0E5FF0CC056
:1020D000E5FF0DC0E5FF0EC0E5FF0FC0E5FF10C036
:1020E000E5FF11C0E5FF12C0E5FF13C0E5FF14C016
:1020F000E5FF15C0E5FF16C0E5FF17C0E5FF18C0F6
:10210000E5FF19C0E5FF020EDBCF00F0030EDBCFC9
:1021100001F0040EDBCF02F0050EDBCF03F0060E5C
:10212000DBCF04F0070EDBCF05F0080EDBCF06F0A7
:10213000090EDBCF07F00A0EDBCF08F0096A020EAA
:102140000A6E03C0E9FF04C0F3FF055029EC00F05C
:102150000B6E0B5002E11EEF15F00C6A0B50250AB6
:1021600002E005EF15F00B6A0D6A032A02E3044A48
:10217000052A03C0E9FF04C0F3FF055029EC00F075
:102180000E6E0E50D8B41EEF15F00E50250A02E167
:1021900005EF15F00E502D0A06E1032A02E3044A6A
:1021A000052A010E0B6E03C00EF004C00FF005C02F
:1021B00010F00EC0E9FF0FC0F3FF105029EC00F043
:1021C000300A06E10E2A02E30F4A102A0B82F1D7E9
:1021D0000EC0E9FF0FC0F3FF105029EC00F0116EA4
:1021E000300E115C13E33A0E115C10E20D500A0D33
:1021F000F3CF0DF0D00E11260D50126E1150122497
:102200000D6E0E2A02E30F4A102AE2D70EC003F029
:102210000FC004F010C005F00EC0E9FF0FC0F3FFBF
:10222000105029EC00F02E0A34E10E50010F036E1D
:10223000000E0F20046E000E1020056E0A6A03C007
:102240000EF004C00FF005C010F00EC0E9FF0FC083
:10225000F3FF105029EC00F0116E300E115C13E307
:102260003A0E115C10E20A500A0DF3CF0AF0D00EBC
:1022700011260A50126E115012240A6E0E2A02E321
:102280000F4A102AE2D70EC003F00FC004F010C0AE
:1022900005F003C0E9FF04C0F3FF055029EC00F08E
:1022A0000E6E660A01E040D00650040F0F6E000E5D
:1022B0000720106E000E0820116E0FC006F010C02F
:1022C00007F011C008F0FC0E0F26FF0E102211229D
:1022D0000FC0E9FF10C0F3FF11502FEC00F00F6E9C
:1022E000F3CF10F0F4CF11F0E9CF12F00A50E56E01
:1022F000E56A0B50E56E0D50E56E1250E56E11501B
:10230000E56E1050E56E0F50E56E0250E56E01501F
:10231000E56E0050E56E6EEC15F00F6E0B0EE126CB
:102320000F50092618EF15F00E50730A01E052D035
:102330000650030F0F6E000E0720106E000E0820CF
:10234000116E0FC006F010C007F011C008F0FD0EAE
:102350000F26FF0E102211220FC0E9FF10C0F3FF5D
:1023600011502DEC00F00F6EF3CF10F0F4CF11F000
:102370000FC012F010C013F011C014F010101110A3
:1023800007E012C00FF013C010F014C011F006D017
:10239000000E116E340E106E6C0E0F6E0B50E56E4B
:1023A0000D50E56E1150E56E1050E56E0F50E56E64
:1023B0000250E56E0150E56E0050E56E19EC21F01B
:1023C0000F6E080EE1260950106E0F501024096E92
:1023D00018EF15F00E506C0A06E1032A02E3044AD6
:1023E000052A010E0C6E03C0E9FF04C0F3FF05507F
:1023F00029EC00F00E6E750A01E06CD00C5023E061
:102400000650040F0F6E000E0720106E000E0820FD
:10241000116E0FC006F010C007F011C008F0FC0EDE
:102420000F26FF0E102211220FC0E9FF10C0F3FF8C
:1024300011502FEC00F00F6EF3CF10F0F4CF11F02D
:10244000E9CF12F024D00650020F136E000E0720C1
:10245000146E000E0820156E13C006F014C007F0AD
:1024600015C008F0FE0E1326FF0E1422152213C00D
:10247000E9FF14C0F3FF15502BEC00F0136EF3CFFF
:1024800014F013C00FF014C010F0116A126A610E3C
:10249000E56EE56A0B50E56E0D50E56EE56A0A0ED5
:1024A000E56E0C50E56E1250E56E1150E56E105061
:1024B000E56E0F50E56E0250E56E0150E56E00507E
:1024C000E56E77EC1AF0136E0E0EE1261350092616
:1024D00018EF15F00E50640A04E00E50690A01E08E
:1024E00075D00C5023E00650040F136E000E072029
:1024F000146E000E0820156E13C006F014C007F00D
:1025000015C008F0FC0E1326FF0E1422152213C06E
:10251000E9FF14C0F3FF15502FEC00F0136EF3CF5A
:1025200014F0F4CF15F0E9CF16F024D00650020FC6
:10253000176E000E0720186E000E0820196E17C0C7
:1025400006F018C007F019C008F0FE0E1726FF0E9F
:102550001822192217C0E9FF18C0F3FF19502BECFD
:1025600000F0176EF3CF18F017C013F018C014F076
:10257000156A166A13C00FF014C010F015C011F0E0
:1025800016C012F0610EE56EE56A0B50E56E0D5057
:10259000E56E010EE56E0A0EE56E0C50E56E12500A
:1025A000E56E1150E56E1050E56E0F50E56E02506D
:1025B000E56E0150E56E0050E56E77EC1AF0136E93
:1025C0000E0EE1261350092618EF15F00E50780A6A
:1025D00004E00E50700A01E073D00C5023E0065066
:1025E000040F136E000E0720146E000E0820156EE7
:1025F00013C006F014C007F015C008F0FC0E132637
:10260000FF0E1422152213C0E9FF14C0F3FF15506A
:102610002FEC00F0136EF3CF14F0F4CF15F0E9CFE8
:1026200016F024D00650020F176E000E0720186E09
:10263000000E0820196E17C006F018C007F019C068
:1026400008F0FE0E1726FF0E1822192217C0E9FF08
:1026500018C0F3FF19502BEC00F0176EF3CF18F0F1
:1026600017C013F018C014F0156A166A13C00FF0E3
:1026700014C010F015C011F016C012F0610EE56E16
:10268000E56A0B50E56E0D50E56EE56A100EE56EDD
:102690000C50E56E1250E56E1150E56E1050E56E6F
:1026A0000F50E56E0250E56E0150E56E0050E56E8C
:1026B00077EC1AF0136E0E0EE12613500926B8D1EE
:1026C0000E50580A04E00E50500A01E073D00C502E
:1026D00023E00650040F136E000E0720146E000E48
:1026E0000820156E13C006F014C007F015C008F0DE
:1026F000FC0E1326FF0E1422152213C0E9FF14C08E
:10270000F3FF15502FEC00F0136EF3CF14F0F4CF5D
:1027100015F0E9CF16F024D00650020F176E000E08
:102720000720186E000E0820196E17C006F018C09A
:1027300007F019C008F0FE0E1726FF0E1822192206
:1027400017C0E9FF18C0F3FF19502BEC00F0176E0B
:10275000F3CF18F017C013F018C014F0156A166AFA
:1027600013C00FF014C010F015C011F016C012F015
:10277000410EE56EE56A0B50E56E0D50E56EE56ABB
:10278000100EE56E0C50E56E1250E56E1150E56EC0
:102790001050E56E0F50E56E0250E56E0150E56E8B
:1027A0000050E56E77EC1AF0136E0E0EE126135012
:1027B00009263ED10E50620A01E073D00C5023E08E
:1027C0000650040F136E000E0720146E000E082032
:1027D000156E13C006F014C007F015C008F0FC0E0B
:1027E0001326FF0E1422152213C0E9FF14C0F3FFB5
:1027F00015502FEC00F0136EF3CF14F0F4CF15F05A
:10280000E9CF16F024D00650020F176E000E0720F5
:10281000186E000E0820196E17C006F018C007F0D9
:1028200019C008F0FE0E1726FF0E1822192217C035
:10283000E9FF18C0F3FF19502BEC00F0176EF3CF2F
:1028400018F017C013F018C014F0156A166A13C0F8
:102850000FF014C010F015C011F016C012F0610E88
:10286000E56EE56A0B50E56E0D50E56EE56A020E09
:10287000E56E0C50E56E1250E56E1150E56E10508D
:10288000E56E0F50E56E0250E56E0150E56E0050AA
:10289000E56E77EC1AF0136E0E0EE1261350092642
:1028A000C7D00E506F0A01E073D00C5023E00650E1
:1028B000040F136E000E0720146E000E0820156E14
:1028C00013C006F014C007F015C008F0FC0E132664
:1028D000FF0E1422152213C0E9FF14C0F3FF155098
:1028E0002FEC00F0136EF3CF14F0F4CF15F0E9CF16
:1028F00016F024D00650020F176E000E0720186E37
:10290000000E0820196E17C006F018C007F019C095
:1029100008F0FE0E1726FF0E1822192217C0E9FF35
:1029200018C0F3FF19502BEC00F0176EF3CF18F01E
:1029300017C013F018C014F0156A166A13C00FF010
:1029400014C010F015C011F016C012F0610EE56E43
:10295000E56A0B50E56E0D50E56EE56A080EE56E12
:102960000C50E56E1250E56E1150E56E1050E56E9C
:102970000F50E56E0250E56E0150E56E0050E56EB9
:1029800077EC1AF00C6E0E0EE1260C50092650D092
:102990000E50630A01E04CD00650020F0C6E000E80
:1029A00007200E6E000E08200F6E0CC006F00EC041
:1029B00007F00FC008F0FE0E0C26FF0E0E220F22AD
:1029C0000CC0E9FF0EC0F3FF0F502BEC00F002012A
:1029D0009B6F9C6B0B50E56E0D50E56E800EE56EA7
:1029E000020EE56E9B0EE56E0250E56E0150E56E3F
:1029F0000050E56E19EC21F00B6E080EE12609502F
:102A00000C6E0B500C24096E13D003C0E9FF04C0F8
:102A1000F3FF055029EC00F0E56E0250E56E015021
:102A2000E56E0050E56E82EC1FF0040EE126092AE7
:102A3000032A02E3044A052AA1EF10F00050011016
:102A4000021014E000C0E9FF01C0F3FF02502DECBA
:102A500000F0006EF3CF01F0F4CF02F0E56A00C0A1
:102A6000E9FF01C0F3FF025031EC00F00950E4CF60
:102A700019F0E4CF18F0E4CF17F0E4CF16F0E4CF6C
:102A800015F0E4CF14F0E4CF13F0E4CF12F0E4CF6C
:102A900011F0E4CF10F0E4CF0FF0E4CF0EF0E4CF6C
:102AA0000DF0E4CF0CF0E4CF0BF0E4CF0AF0E4CF6C
:102AB00009F0E4CF08F0E4CF07F0E4CF06F0E4CF6C
:102AC00005F0E4CF04F0E4CF03F0E4CF02F0E4CF6C
:102AD00001F0E4CF00F0E4CFD9FF1200D9CFE5FF39
:102AE000E1CFD9FF00C0E5FF01C0E5FF02C0E5FF6F
:102AF00003C0E5FF04C0E5FF05C0E5FF06C0E5FF34
:102B000007C0E5FF08C0E5FF09C0E5FF0AC0E5FF13
:102B10000BC0E5FF0CC0E5FF0DC0E5FF0EC0E5FFF3
:102B20000FC0E5FF10C0E5FF11C0E5FF12C0E5FFD3
:102B300013C0E5FF14C0E5FF15C0E5FF16C0E5FFB3
:102B400017C0E5FF18C0E5FF19C0E5FF1AC0E5FF93
:102B50001BC0E5FF1CC0E5FF1DC0E5FF1EC0E5FF73
:102B60001FC0E5FF20C0E5FF020EDBCF00F0030E23
:102B7000DBCF01F0040EDBCF02F0050EDBCF03F05C
:102B8000060EDBCF04F0070EDBCF05F0080EDBCF1F
:102B900006F0090EDBCF07F00A0EDBCF08F00C0EB3
:102BA000DBCF09F00A6A0B6A0C6A0D6A0E6A0F6ABB
:102BB000106A116A020E136E5C0E126E800E146E95
:102BC000020E166E680E156E800E176E186A0B0ECA
:102BD000196E03500201876F0450886F0550896F8A
:102BE00006508A6FD8808AAFD89023E3075012E04E
:102BF00008A210D02D0EE56E0250E56E0150E56E74
:102C00000050E56E82EC1FF0040EE126010E186EF6
:102C100007060FD02D0EE56E12C0E9FF13C0F3FFBB
:102C2000145031EC00F0122A02E3134A142A0A0E5F
:102C3000196E020189358A35036E046A810E0326F6
:102C40008751046E8851056E7F0E8915066E1A6ACB
:102C5000068E0350800F610F21E32B0E02015C6F83
:102C6000690E5D6F6E0E5E6F660E5F6F606B085073
:102C7000E56E0750E56E800EE56E020EE56E5C0EA9
:102C8000E56E0250E56E0150E56E0050E56E19EC00
:102C900021F01B6E080EE1261B50BBD10350800FA4
:102CA000970F09E20A6A0B6A0C6A0D6A0E6A0F6ACC
:102CB000106A116A9DD00350800F690F25E303C08D
:102CC0001BF01C6A03BE1C68E90E1B26D8A01C065C
:102CD00004C00AF005C00BF006C00CF01AC00DF0DD
:102CE0001B5011E009E6E86CD8900A360B360C361A
:102CF0000D36010FFAE37CD0D8900D320C320B3236
:102D00000A32010FFAE374D0D88003AED890D8B05D
:102D10004AD003C01BF01C6A03BE1C681B50170876
:102D20001D6E000E1C5404C00AF005C00BF006C056
:102D30000CF01AC00DF01D5011E009E6E86CD890B7
:102D40000D320C320B320A32010FFAE307D0D89061
:102D50000A360B360C360D36010FFAE31B4A1C2AD5
:102D600004C01DF005C01EF006C01FF01AC020F000
:102D70001B5011E009E6E86CD8901D361E361F3650
:102D80002036010FFAE307D0D89020321F321E32CE
:102D90001D32010FFAE31D500E6E1E500F6E1F50B4
:102DA000106E116A25D01A6A1B6A03BE1B68034A9B
:102DB0001B2A1B1E036CD8B41B2A04C00EF005C0CE
:102DC0000FF006C010F01AC011F0035011E009E630
:102DD000E86CD890113210320F320E32010FFAE344
:102DE00007D0D8900E360F3610361136010FFAE3A1
:102DF0000A500B100C100D100FE1300EE56E12C0D2
:102E0000E9FF13C0F3FF145031EC00F0122A02E383
:102E1000134A142A190678D015C003F016C004F01E
:102E200017C005F0066A19C015F00A500B100C10F7
:102E30000D10D8B43CD0E56AE56AE56A0A0EE56E85
:102E40000D50E56E0C50E56E0B50E56E0A50E56EC8
:102E5000BAEC22F0166E080EE126300E162616C0C9
:102E6000E5FF03C0E9FF04C0F3FF055031EC00F0BB
:102E7000032A02E3044A052AE56AE56AE56A0A0EBE
:102E8000E56E0D50E56E0C50E56E0B50E56E0A5088
:102E9000E56E8DEC24F00A6EF3CF0BF0F4CF0CF05E
:102EA000E9CF0DF0080EE126062A1506BED715C09B
:102EB00019F012C00AF013C00BF014C00CF006C0D9
:102EC0000DF006060D501AE0FF0E0326042205221F
:102ED00003C0E9FF04C0F3FF055029EC00F00D6EBC
:102EE0000DC0E5FF0AC0E9FF0BC0F3FF0C5031EC49
:102EF00000F00A2AE4E30B4A0C2AE1D70AC012F0D8
:102F00000BC013F00CC014F0070E095C02E3060EB0
:102F1000096E0950195CD8A019C009F0010E095CAE
:102F2000D8A057D02E0EE56E12C0E9FF13C0F3FFF4
:102F3000145031EC00F0122A02E3134A142A12C092
:102F400003F013C004F014C005F0066A0950065CD3
:102F50003AE20E500E240A6E0F340B6E10340C6ED3
:102F600011340D6E0A500A260B360C360D360A50F7
:102F70000A260B360C360D360E500E24156E0F3405
:102F8000166E1034176E1134196E15500A240E6E19
:102F900016500B200F6E17500C20106E19500D207C
:102FA0000A6E300E0A260AC0E5FF03C0E9FF04C01E
:102FB000F3FF055031EC00F0032A02E3044A052A2E
:102FC000116A062AC3D703C012F004C013F005C06B
:102FD00014F0E56A12C0E9FF13C0F3FF145031EC9E
:102FE00000F00850E56E0750E56E800EE56E020EAB
:102FF000E56E5C0EE56E0250E56E0150E56E005028
:10300000E56E19EC21F0006E080EE126185000263E
:103010000050E4CF20F0E4CF1FF0E4CF1EF0E4CF67
:103020001DF0E4CF1CF0E4CF1BF0E4CF1AF0E4CFA6
:1030300019F0E4CF18F0E4CF17F0E4CF16F0E4CFA6
:1030400015F0E4CF14F0E4CF13F0E4CF12F0E4CFA6
:1030500011F0E4CF10F0E4CF0FF0E4CF0EF0E4CFA6
:103060000DF0E4CF0CF0E4CF0BF0E4CF0AF0E4CFA6
:1030700009F0E4CF08F0E4CF07F0E4CF06F0E4CFA6
:1030800005F0E4CF04F0E4CF03F0E4CF02F0E4CFA6
:1030900001F0E4CF00F0E4CFD9FF120012010002EA
:1030A000FF00FF08D804AAFE000101020303090281
:1030B0001200010104C0000904000000FFFFFF042A
:1030C00009022000010205C0000904000002FFFF00
:1030D000FF050705010240000007058202400000CD
:1030E00009022000010304C0000904000002FFFFE0
:1030F000FF060705010240000007058202400000AC
:10310000AE3000C03000E0300000040309042603A4
:103110004A00650061006E002D00500069006500E6
:1031200072007200650020004D0041004E00440016
:103130004F004E002203500069006E0067007500CA
:1031400069006E006F002000500072006F006A007E
:10315000650063007400040331001003440065003F
:103160006600610075006C0074000C0346006C0082
:103170006100730068001C03500069006E00670066
:10318000750069006E006F00200061007000700023
:103190006C000A31000E31003431005631005A31D2
:1031A000006A3100763100002E00001E20001E2033
:1031B000001E20001E20001E20001E20001E2000D9
:1031C0001E20001E20001E20001E20001E20001EAB
:1031D00020001E20001E20002E00003A00004200A9
:1031E000001E20001E20001E20001E20001E2000A9
:1031F0001E20001E20001E20001E20001E20001E7B
:1032000020001E20001E20002E0000625C00645C76
:10321000001E20001E20001E20001E20001E200078
:103220001E20001E20001E20001E20001E20001E4A
:1032300020001E20001E2000A83100A83100D83137
:10324000000832003200001E20001E20001E200058
:103250001E20001E20001E20001E20001E20001E1A
:1032600020001E20001E20001E20001E20001E2008
:10327000001E20003200001E20004600001E20001C
:103280001E20001E20001E20001E20001E20001EEA
:1032900020001E20001E20001E20001E20001E20D8
:1032A000001E20003200001E2000685C001E20006E
:1032B0001E20001E20001E20001E20001E20001EBA
:1032C00020001E20001E20001E20001E20001E20A8
:1032D000001E2000443200443200743200A4320048
:1032E0002E00001E20001E20001E20001E20001E9A
:1032F00020001E20001E20001E20001E20001E2078
:10330000001E20001E20001E20001E20001E200087
:103310002E00003E00001E20001E20001E20001E69
:1033200020001E20001E20001E20001E20001E2047
:10333000001E20001E20001E20001E20001E200057
:103340002E0000665C001E20001E20001E20001EB5
:1033500020001E20001E20001E20001E20001E2017
:10336000001E20001E20001E20001E20001E200027
:10337000E03200E032001033004033003600001E1F
:1033800020001E20001E20001E20001E20001E20E7
:10339000001E20001E20001E20001E20001E2000F7
:1033A0001E20001E20001E20001E20007C33007CFA
:1033B00033007C33007C3300120100020200004025
:1033C000D804ABFE00000102000109024300020123
:1033D00000C01409040000010202010005240010CD
:1033E0000104240200052406000105240100010750
:1033F00005820310000209040100020A0000000710
:10340000050302400000070583024000000004039A
:10341000090416034A00500020004D0041004E00F0
:1034200044004F004E0020001203500069006E005F
:103430006700750069006E006F000E3400123400E2
:10344000283400000203040601020304127A00007B
:1034500048E8010090D0030020A1070040420F007F
:1034600080841E0000093D0000127A00286E756CF1
:103470006C290000010204081020408040800102F5
:103480000401020408200102040102040810204083
:10349000801001010101010101010202020202008A
:1034A00000000000040404030303030303030300F8
:1034B00011001200130014007C204125753A2025CC
:1034C00075207C000D0A0000E806E56E090E3BEC55
:1034D00000F0E4500BE000D0E56E090E3BEC00F08C
:1034E00000D0E450000000D0E82EF6D71200D9CF6B
:1034F000E5FFE1CFD9FF00C0E5FF01C0E5FF02C055
:10350000E5FF03C0E5FF04C0E5FF05C0E5FF06C019
:10351000E5FF07C0E5FF08C0E5FF09C0E5FF0AC0F9
:10352000E5FF0BC0E5FF0CC0E5FF0DC0E5FF0EC0D9
:10353000E5FF0FC0E5FF10C0E5FF11C0E5FF12C0B9
:10354000E5FF13C0E5FF14C0E5FF15C0E5FF16C099
:10355000E5FF17C0E5FF18C0E5FF19C0E5FF1AC079
:10356000E5FF1BC0E5FF020EDBCF00F0030EDBCF53
:1035700001F0040EDBCF02F0050EDBCF03F0060EE8
:10358000DBCF04F0070EDBCF05F0080EDBCF06F033
:10359000090EDBCF07F00A0EDBCF08F00B0EDBCFF6
:1035A00009F00C0EDBCF0AF00D0EDBCF0BF00F0E87
:1035B000DBCF0CF00D6A0E6A03C00FF004C010F0F0
:1035C00005C011F006C012F00350041005100610DB
:1035D0001BE1300E0201506F516B0B50E56E0A502B
:1035E000E56E800EE56E020EE56E500EE56E025041
:1035F000E56E0150E56E0050E56E19EC21F0136E9A
:10360000080EE1261350ECD0095036E008500A0AA3
:1036100033E107501CE00350096E0450136E05504F
:10362000146E0650156ED88015AED89010E3010EBA
:103630000D6E151C126E141C116E131C106E091CDD
:103640000F6E0F2A04E1102A02E1114A122A0750D4
:1036500013E1D88004AED8900FE3010E0D6E041E66
:10366000036CD8B4042A03C00FF004C010F0E86A59
:1036700004BEFF0E116E126E020E046E5B0E036E20
:10368000800E056EE56A03C0E9FF04C0F3FF31EC6C
:1036900000F003C006F004C007F005C009F00F50A9
:1036A000101011101210D8B45AD008C013F0146AB8
:1036B000156A166AE56AE56AE56A1350E56E125006
:1036C000E56E1150E56E1050E56E0F50E56EBAECE8
:1036D00022F0176EF3CF18F0F4CF19F0E9CF1AF0FB
:1036E000080EE126000E1A5C08E1000E195C05E1E7
:1036F000000E185C02E10A0E175C06E30CC01BF01A
:10370000C60E1B261B501726FF0E0626072209226F
:10371000300E172617C0E5FF06C0E9FF07C0F3FF0C
:10372000095031EC00F01650E56E1550E56E14505E
:10373000E56E1350E56E1250E56E1150E56E1050B7
:10374000E56E0F50E56E8DEC24F00F6EF3CF10F0A8
:10375000F4CF11F0E9CF12F0080EE126A0D706C091
:1037600003F007C004F009C005F00D5021E00A5035
:1037700012E00BA210D02D0EE56E0250E56E015046
:10378000E56E0050E56E82EC1FF0040EE126010E9E
:103790000E6E0A060DD0FF0E0326042205222D0E02
:1037A000E56E03C0E9FF04C0F3FF055031EC00F003
:1037B0000B50E56E0A50E56E0550E56E0450E56E5F
:1037C0000350E56E0250E56E0150E56E0050E56E67
:1037D00019EC21F0006E080EE1260E500026005074
:1037E000E4CF1BF0E4CF1AF0E4CF19F0E4CF18F0E7
:1037F000E4CF17F0E4CF16F0E4CF15F0E4CF14F0E7
:10380000E4CF13F0E4CF12F0E4CF11F0E4CF10F0E6
:10381000E4CF0FF0E4CF0EF0E4CF0DF0E4CF0CF0E6
:10382000E4CF0BF0E4CF0AF0E4CF09F0E4CF08F0E6
:10383000E4CF07F0E4CF06F0E4CF05F0E4CF04F0E6
:10384000E4CF03F0E4CF02F0E4CF01F0E4CF00F0E6
:10385000E4CFD9FF1200D9CFE5FFE1CFD9FF00C0F7
:10386000E5FF01C0E5FF02C0E5FF03C0E5FF04C0BE
:10387000E5FF020EDBCF00F0030EDBCF01F0920E6E
:103880000024026E036A340E0322046A000E04222E
:1038900002C0F6FF03C0F7FF04C0F8FF0900F5CF30
:1038A00002F0050E025CD8B0F8D0FA6AFB6A023466
:1038B000FA36E834FA36FC0BC80FE56E380EFA22F9
:1038C000000EFB22E450F96E6EEF1CF09BEF1CF033
:1038D000C8EF1CF0F5EF1CF022EF1DF0015015E0D1
:1038E000740E0024026E036A340E0322046A000E72
:1038F000042202C0F6FF03C0F7FF04C0F8FF09006E
:10390000F5CF02F002508912C8D0740E0024026E66
:10391000036A340E0322046A000E042202C0F6FF7A
:1039200003C0F7FF04C0F8FF0900F5CF02F0025012
:10393000FF088916B2D0015015E0740E0024026E03
:10394000036A340E0322046A000E042202C0F6FF4A
:1039500003C0F7FF04C0F8FF0900F5CF02F00250E2
:103960008A129BD0740E0024026E036A340E032266
:10397000046A000E042202C0F6FF03C0F7FF04C071
:10398000F8FF0900F5CF02F00250FF088A1685D033
:10399000015015E0740E0024026E036A340E0322F7
:1039A000046A000E042202C0F6FF03C0F7FF04C041
:1039B000F8FF0900F5CF02F002508B126ED0740EA2
:1039C0000024026E036A340E0322046A000E0422ED
:1039D00002C0F6FF03C0F7FF04C0F8FF0900F5CFEF
:1039E00002F00250FF088B1658D0015015E0740EFB
:1039F0000024026E036A340E0322046A000E0422BD
:103A000002C0F6FF03C0F7FF04C0F8FF0900F5CFBE
:103A100002F002508C1241D0740E0024026E036A30
:103A2000340E0322046A000E042202C0F6FF03C013
:103A3000F7FF04C0F8FF0900F5CF02F00250FF08BD
:103A40008C162BD0015015E0740E0024016E026A12
:103A5000340E0222036A000E032201C0F6FF02C0E8
:103A6000F7FF03C0F8FF0900F5CF01F001508D12F8
:103A700014D0016A026A740E0026340E0122000E70
:103A8000022200C0F6FF01C0F7FF02C0F8FF0900E4
:103A9000F5CF00F00050FF088D16E4CF04F0E4CF1E
:103AA00003F0E4CF02F0E4CF01F0E4CF00F0E4CF84
:103AB000D9FF1200D9CFE5FFE1CFD9FF00C0E5FF64
:103AC00001C0E5FF02C0E5FF03C0E5FF04C0E5FF5C
:103AD000020EDBCF00F0030EDBCF01F0920E0024CC
:103AE000026E036A340E0322046A000E042202C02E
:103AF000F6FF03C0F7FF04C0F8FF0900F5CF02F09E
:103B0000050E025CD8B0F8D0FA6AFB6A0234FA36C5
:103B1000E834FA36FC0B260FE56E3B0EFA22000E57
:103B2000FB22E450F96E9DEF1DF0CAEF1DF0F7EF98
:103B30001DF024EF1EF051EF1EF0015015E0740E41
:103B40000024026E036A340E0322046A000E04226B
:103B500002C0F6FF03C0F7FF04C0F8FF0900F5CF6D
:103B600002F002509212C8D0740E0024026E036A52
:103B7000340E0322046A000E042202C0F6FF03C0C2
:103B8000F7FF04C0F8FF0900F5CF02F00250FF086C
:103B90009216B2D0015015E0740E0024026E036A32
:103BA000340E0322046A000E042202C0F6FF03C092
:103BB000F7FF04C0F8FF0900F5CF02F0025093129E
:103BC0009BD0740E0024026E036A340E0322046A32
:103BD000000E042202C0F6FF03C0F7FF04C0F8FF86
:103BE0000900F5CF02F00250FF08931685D001506E
:103BF00015E0740E0024026E036A340E0322046A78
:103C0000000E042202C0F6FF03C0F7FF04C0F8FF55
:103C10000900F5CF02F0025094126ED0740E002409
:103C2000026E036A340E0322046A000E042202C0EC
:103C3000F6FF03C0F7FF04C0F8FF0900F5CF02F05C
:103C40000250FF08941658D0015015E0740E00245D
:103C5000026E036A340E0322046A000E042202C0BC
:103C6000F6FF03C0F7FF04C0F8FF0900F5CF02F02C
:103C70000250951241D0740E0024026E036A340E75
:103C80000322046A000E042202C0F6FF03C0F7FFFD
:103C900004C0F8FF0900F5CF02F00250FF089516A6
:103CA0002BD0015015E0740E0024016E026A340E10
:103CB0000222036A000E032201C0F6FF02C0F7FFD2
:103CC00003C0F8FF0900F5CF01F00150961214D09F
:103CD000016A026A740E0026340E0122000E0222CE
:103CE00000C0F6FF01C0F7FF02C0F8FF0900F5CFE2
:103CF00000F00050FF089616E4CF04F0E4CF03F084
:103D0000E4CF02F0E4CF01F0E4CF00F0E4CFD9FF3C
:103D1000120000C0E5FF01C0E5FF02C0E5FF03C0DF
:103D2000E5FF04C0E5FF05C0E5FFD350030B006EBF
:103D3000FA6AFB6A0034FA36E834FA36FC0B4E0FA6
:103D4000E56E3D0EFA22000EFB22E450F96EAFEF55
:103D50001EF040EF1FF046EF1FF046EF1FF0E56A40
:103D6000300EE56E000EE56AE56AF1EC28F0006EB3
:103D7000040EE126180E0016016AD89001320032B6
:103D8000D89001320032D89001320032480E00241F
:103D9000016E026A340E0222036A000E032201C081
:103DA000F6FF02C0F7FF03C0F8FF0900F5CF01F0EE
:103DB000E56A300EE56EE56A010EE56EF1EC28F07D
:103DC000026E040EE1260F0E0216440E0024036E4E
:103DD000046A340E0422056A000E052203C0F6FFB1
:103DE00004C0F7FF05C0F8FF0900F5CF00F0D89038
:103DF0000232025006E00250020A03E00250060AB4
:103E00001FE1E56AE56AE56A0150E56EE56A7A0E4A
:103E1000E56E120EE56E000EE56AEBEC21F0016E28
:103E2000F3CF02F0F4CF03F0E9CF04F0080EE1265F
:103E300004C0E9FF03C0F4FF02C0F3FF015055D0F6
:103E4000E56AE56AE56A0050E56E050EE56EB80EB6
:103E5000E56ED80EE56E000EE56A8DEC24F0006E7E
:103E6000F3CF01F0F4CF02F0E9CF03F0080EE12622
:103E700003C0E9FF02C0F4FF01C0F3FF005035D0DA
:103E8000E96AF46A800EF36EE86A2FD0D350E838FE
:103E9000070BE56AE56EE56A040EE56E27EC00F0B7
:103EA000006EF3CF01F0040EE126026A4C0E0026EC
:103EB000340E0122000E022200C0F6FF01C0F7FFFF
:103EC00002C0F8FF0900F5CF00F00900F5CF01F0BE
:103ED0000900F5CF02F00900F5CF03F003C0E9FFB8
:103EE00002C0F4FF01C0F3FF0050E4CF05F0E4CFBF
:103EF00004F0E4CF03F0E4CF02F0E4CF01F0E4CF2C
:103F000000F01200D9CFE5FFE1CFD9FF00C0E5FFF7
:103F100001C0E5FF02C0E5FF03C0E5FF04C0E5FF07
:103F200005C0E5FF06C0E5FF020EDBCF00F0030E83
:103F3000DBCF01F0040EDBCF02F0050EDBCF03F088
:103F400000500110021033E000C0E9FF01C0F3FF90
:103F500002502DEC00F0046EF3CF05F0F4CF06F024
:103F600003C0E5FF04C0E9FF05C0F3FF065031ECD4
:103F700000F000C0E9FF01C0F3FF02502DEC00F09B
:103F8000046EF3CF05F0F4CF06F0042A02E3054AED
:103F9000062A04C0E5FF05C0F4FF06C0F6FF00C016
:103FA000E9FF01C0F3FF025035EC00F016D00350DA
:103FB000E56EF2CFE5FFF29E0500D80EFD6E3F0ED6
:103FC000FE6E000EFF6EE4BEF28E8DC2FBFF8CC251
:103FD000FAFF02018B51F96EE652E4CF06F0E4CF0E
:103FE00005F0E4CF04F0E4CF03F0E4CF02F0E4CF37
:103FF00001F0E4CF00F0E4CFD9FF1200FFEF2DF085
:10400000D8CFE5FFE0CFE5FFE56EF3CFE5FFF4CFD6
:10401000E5FFE9CFE5FFEACFE5FFFACFE5FFFBCF0C
:10402000E5FFD9CFE5FFE1CFD9FFF6CFE5FFF7CF29
:10403000E5FFF8CFE5FFF5CFE5FFE4CFF5FFE4CFEF
:10404000F8FFE4CFF7FFE4CFF6FFE4CFD9FFE4CFEA
:10405000FBFFE4CFFAFFE4CFEAFFE4CFE9FFE4CFD0
:10406000F4FFE4CFF3FFE450E4CFE0FFE4CFD8FF68
:104070001000D9CFE5FFE1CFD9FF00C0E5FF01C0B7
:10408000E5FF02C0E5FF03C0E5FF04C0E5FF05C092
:10409000E5FF06C0E5FF07C0E5FF08C0E5FF020E2B
:1040A000DBCF00F0000E02019A5D02E1400E995D47
:1040B00005E299C201F09AC202F003D0400E016EEF
:1040C000026A0044FE0B036E0328040DF450036ED5
:1040D000F3CF00F0000E0024046E040E0320056EE2
:1040E000000E0024066E040E0320076E06C0E9FFD2
:1040F00007C0EAFFEFCF06F0FC0E061604C0E9FF8A
:1041000005C0EAFF06C0EFFF000E0024046E040E97
:104110000320056E000E0024066E040E0320076EB9
:1041200006C0E9FF07C0EAFFEFCF06F0030E021456
:10413000061204C0E9FF05C0EAFF06C0EFFF000E4B
:104140000024046E040E0320056E044A052A015063
:10415000066E04C0E9FF05C0EAFF06C0EFFF000ECF
:104160000026040E0322020E0026D8B0032A400EB9
:10417000046E050E056E00C0E9FF03C0EAFF04C02F
:10418000EEFF05C0EFFF01500201995F02509A5BFC
:10419000050E0201926F400E916F800E936F006AC0
:1041A00000C003F0046A0250045C02E10150035CA9
:1041B0002BE291C203F092C204F093C205F08EC2CA
:1041C00006F08FC207F090C208F006C0E9FF07C0F2
:1041D000F3FF085029EC00F0066E02018E2B03E37A
:1041E0008F3F01D0902B06C0E5FF03C0E9FF04C05C
:1041F000F3FF055031EC00F00201912B03E3923FF5
:1042000001D0932B002ACCD7E4CF08F0E4CF07F0FD
:10421000E4CF06F0E4CF05F0E4CF04F0E4CF03F000
:10422000E4CF02F0E4CF01F0E4CF00F0E4CFD9FF17
:104230001200D9CFE5FFE1CFD9FF00C0E5FF01C0F3
:10424000E5FF02C0E5FF03C0E5FF04C0E5FF05C0D0
:10425000E5FF06C0E5FF07C0E5FF08C0E5FF09C0B0
:10426000E5FF0AC0E5FF0BC0E5FF0CC0E5FF0DC090
:10427000E5FF0EC0E5FF020EDBCF00F0030EDBCF43
:1042800001F0040EDBCF02F0050EDBCF03F0060ECB
:10429000DBCF04F0070EDBCF05F0080EDBCF06F016
:1042A000090EDBCF07F0086A200E096E065022E0E7
:1042B0000A6A03C00BF004C00CF005C00DF00BC07F
:1042C000E9FF0CC0F3FF0D5029EC00F00E6E0E500C
:1042D00006E00A2A0B2AF3E30C4A0D2AF0D706500F
:1042E0000A5C02E3066A02D00A50065E07A202D008
:1042F000300E096E07B019D0076A06C00AF00A50DE
:1043000005E107C008F00AC006F00FD00950E56EBD
:104310000250E56E0150E56E0050E56E82EC1FF034
:10432000040EE126072A0A06EAD708C007F003C0F0
:10433000E9FF04C0F3FF055029EC00F0086E0850B7
:1043400012E00850E56E0250E56E0150E56E005037
:10435000E56E82EC1FF0040EE126072A032AE7E34C
:10436000044A052AE4D707C003F006C004F004504D
:104370000FE00950E56E0250E56E0150E56E005009
:10438000E56E82EC1FF0040EE126032A0406EFD747
:10439000F36A0350E4CF0EF0E4CF0DF0E4CF0CF05D
:1043A000E4CF0BF0E4CF0AF0E4CF09F0E4CF08F05B
:1043B000E4CF07F0E4CF06F0E4CF05F0E4CF04F05B
:1043C000E4CF03F0E4CF02F0E4CF01F0E4CF00F05B
:1043D000E4CFD9FF1200D9CFE5FFE1CFD9FF00C06C
:1043E000E5FF01C0E5FF02C0E5FF03C0E5FF04C033
:1043F000E5FF05C0E5FF06C0E5FF07C0E5FF08C013
:10440000E5FF09C0E5FF0AC0E5FF0BC0E5FF0CC0F2
:10441000E5FF0DC0E5FF020EDBCF00F0030EDBCFA2
:1044200001F0040EDBCF02F0050EDBCF03F0060E29
:10443000DBCF04F0070EDBCF05F0080EDBCF06F074
:10444000090EDBCF07F0D88003AED890086A083693
:1044500008500FE0031C0C6E021C0B6E011C0A6E50
:10446000001C096E092A0DE10A2A0BE10B4A0C2AED
:1044700008D000C009F001C00AF002C00BF003C070
:104480000CF0D88007AED890006A003600500FE0DC
:10449000071C0D6E061C036E051C026E041C016ECB
:1044A000012A0DE1022A0BE1034A0D2A08D004C0BB
:1044B00001F005C002F006C003F007C00DF00D507A
:1044C000E56E0350E56E0250E56E0150E56E0C504E
:1044D000E56E0B50E56E0A50E56E0950E56E8DEC09
:1044E00024F0016EF3CF02F0F4CF03F0E9CF04F033
:1044F000080EE1260050081A085016E0041C076E4A
:10450000031C066E021C056E011C006E002A04E1ED
:10451000052A02E1064A072A07C0E9FF06C0F4FFA0
:1045200005C0F3FF005007D004C0E9FF03C0F4FF4B
:1045300002C0F3FF0150E4CF0DF0E4CF0CF0E4CF64
:104540000BF0E4CF0AF0E4CF09F0E4CF08F0E4CFB9
:1045500007F0E4CF06F0E4CF05F0E4CF04F0E4CFB9
:1045600003F0E4CF02F0E4CF01F0E4CF00F0E4CFB9
:10457000D9FF1200D9CFE5FFE1CFD9FF00C0E5FF99
:1045800001C0E5FF02C0E5FF03C0E5FF04C0E5FF91
:1045900005C0E5FF06C0E5FF07C0E5FF08C0E5FF71
:1045A00009C0E5FF0AC0E5FF020EDBCF00F0030EF5
:1045B000DBCF01F0040EDBCF02F0050EDBCF03F002
:1045C000060EDBCF04F0070EDBCF05F0080EDBCFC5
:1045D00006F0090EDBCF07F0086A0450051006103C
:1045E000071005E1E968F468F368E86847D0096AEC
:1045F0000750800BE8440A6E0A501BE10450042661
:104600000536063607360750035C08E10650025CA3
:1046100005E10550015C02E10450005C06E2D8901F
:10462000073206320532043204D0092A09C008F0E4
:10463000DFD70750035C08E10650025C05E1055036
:10464000015C02E10450005C08E30450005E055088
:10465000015A0650025A0750035AD89007320632C0
:104660000532043208C009F008060950E2E103C02F
:10467000E9FF02C0F4FF01C0F3FF0050E4CF0AF0ED
:10468000E4CF09F0E4CF08F0E4CF07F0E4CF06F080
:10469000E4CF05F0E4CF04F0E4CF03F0E4CF02F080
:1046A000E4CF01F0E4CF00F0E4CFD9FF1200D9CF7E
:1046B000E5FFE1CFD9FF00C0E5FF01C0E5FF02C083
:1046C000E5FF03C0E5FF04C0E5FF05C0E5FF06C048
:1046D000E5FF07C0E5FF08C0E5FF09C0E5FF020EE2
:1046E000DBCF00F00044FE0B040DF450026EF3CF5C
:1046F00000F0000E0024016E040E0220036E01C0C3
:10470000E9FF03C0EAFFEFCF01F0030E01160150ED
:10471000056E046A000E0026040E0222004A022AD8
:1047200000C0E9FF02C0EAFFEFCF00F0016A0450C9
:1047300000120550011200500201992701509A23DE
:10474000050E02018F6F400E8E6F800E906F026A11
:10475000036A0150035C02E10050025C2CE291C24A
:1047600004F092C205F093C206F08EC207F08FC229
:1047700008F090C209F007C0E9FF08C0F3FF095034
:1047800029EC00F0076E02018E2B03E38F3F01D06E
:10479000902B07C0E5FF04C0E9FF05C0F3FF0650FA
:1047A00031EC00F00201912B03E3923F01D0932BF7
:1047B000024A032ACED7E4CF09F0E4CF08F0E4CFD1
:1047C00007F0E4CF06F0E4CF05F0E4CF04F0E4CF47
:1047D00003F0E4CF02F0E4CF01F0E4CF00F0E4CF47
:1047E000D9FF120000C0E5FF01C0E5FF02C0E5FFF0
:1047F00003C0E5FF04C0E5FF05C0E5FF1F0E05018E
:104800000015006E02C501F0005012E10150010ACE
:1048100001E076D0010E0201A26F05010151030AE9
:1048200004E1010E0201A46F6BD00201A46B68D0F9
:104830000050020A01E064D00F0E05010415006E5D
:10484000800E0415026E0150D8A45AD00050D8B47E
:1048500057D0010E0201A26F040E036E000E016E0E
:10486000800E046E0050080DF450056EF3CF00F07A
:10487000005001240201916F05500320926FE86AF5
:1048800005BEE8680420936F025005E0040E9127EE
:10489000000E9223932305010151030A10E191C2F6
:1048A00000F092C201F093C203F0840EE56E00C0E6
:1048B000E9FF01C0F3FF035031EC00F021D00250BA
:1048C000010A0FE191C200F092C201F093C202F01E
:1048D000E56A00C0E9FF01C0F3FF025031EC00F0CF
:1048E0000FD091C200F092C201F093C202F0880E84
:1048F000E56E00C0E9FF01C0F3FF025031EC00F0AB
:10490000E4CF05F0E4CF04F0E4CF03F0E4CF02F00D
:10491000E4CF01F0E4CF00F01200D9CFE5FFE1CF02
:10492000D9FF00C0E5FF01C0E5FF02C0E5FF03C0FD
:10493000E5FF04C0E5FF05C0E5FF06C0E5FF07C0D1
:10494000E5FF08C0E5FF09C0E5FF0AC0E5FF0BC0B1
:10495000E5FF0CC0E5FF0DC0E5FF020EDBCF00F068
:10496000030EDBCF01F0040EDBCF02F0050EDBCF30
:1049700003F0060EDBCF04F0070EDBCF05F0080EC8
:10498000DBCF06F0090EDBCF07F0086A096A0A6A76
:104990000B6A200E0C6E0350800BE8440D6E005025
:1049A00000260136023603360850082609360A3634
:1049B0000B360D50D8A4088007500B5C08E1065058
:1049C0000A5C05E10550095C02E10450085C09E35A
:1049D0000450085E0550095A06500A5A07500B5AEF
:1049E00000800C040D6E0DC00CF00D50D4E103C01E
:1049F000E9FF02C0F4FF01C0F3FF0050E4CF0DF067
:104A0000E4CF0CF0E4CF0BF0E4CF0AF0E4CF09F0F0
:104A1000E4CF08F0E4CF07F0E4CF06F0E4CF05F0F0
:104A2000E4CF04F0E4CF03F0E4CF02F0E4CF01F0F0
:104A3000E4CF00F0E4CFD9FF1200D9CFE5FFE1CFFA
:104A4000D9FF00C0E5FF01C0E5FF02C0E5FF03C0DC
:104A5000E5FF04C0E5FF05C0E5FF06C0E5FF07C0B0
:104A6000E5FF08C0E5FF09C0E5FF020EDBCF00F05F
:104A7000030EDBCF01F0040EDBCF02F0036A02016C
:104A8000A551050A02E0E86A50D00201985102E1FE
:104A9000E86A4BD0040118BF47D0400E195DD8A07A
:104AA00019C4E8FF046A04011951045C20E20450AF
:104AB0000024056EE86A0120066EE86A0220076E8F
:104AC000800E0424086E096A050E092208C0E9FF59
:104AD00009C0EAFFEFCF08F008C0E5FF05C0E9FF15
:104AE00006C0F3FF075031EC00F0042ADCD704C005
:104AF00003F0400E04011815186F006A18BD002A53
:104B00000050D880E866D890006A00360050010B4B
:104B1000E840E840F46E1851BF0BF410186F400ED7
:104B2000196F880E1811186F0350E4CF09F0E4CF05
:104B300008F0E4CF07F0E4CF06F0E4CF05F0E4CFCF
:104B400004F0E4CF03F0E4CF02F0E4CF01F0E4CFCF
:104B500000F0E4CFD9FF120000C0E5FF01C0E5FF7F
:104B600002C0E5FF03C0E5FF04C0E5FF05C0E5FFA7
:104B70001F0E05010015006E0501406B416B0050D2
:104B800013E1010E0201A26F0201A35104E0010E24
:104B900005014011406F0201A451D8B44CD0020E5F
:104BA00005014011406F47D00050010A04E1010E99
:104BB0000201A26F40D00050020A01E03CD00F0E6B
:104BC00005010415006E800E0415016E010E020130
:104BD000A26F040E036E000E026E800E046E005073
:104BE000080DF450056EF3CF00F0005002240201CE
:104BF000916F05500320926FE86A05BEE8680420B3
:104C0000936F015005E0040E9127000E9223932329
:104C100091C200F092C201F093C202F000C0E9FF1D
:104C200001C0F3FF025029EC00F0006E00A403D095
:104C3000010E0501406F0201A2510BE0050E0201B9
:104C40008F6F400E8E6F800E906F020E0201996F73
:104C50009A6BE4CF05F0E4CF04F0E4CF03F0E4CFA7
:104C600002F0E4CF01F0E4CF00F01200D9CFE5FF6D
:104C7000E1CFD9FF00C0E5FF01C0E5FF02C0E5FFBD
:104C800003C0E5FF04C0E5FF05C0E5FF06C0E5FF82
:104C900007C0E5FF08C0E5FF020EDBCF00F0030E02
:104CA000DBCF01F0040EDBCF02F0050EDBCF03F00B
:104CB0000201A551050A02E0E86A4CD002019851B0
:104CC00002E1E86A47D004011CBF43D0410E035CF7
:104CD00002E3400E036E046A0350045C1DE2C00E42
:104CE0000424056E066A050E062204500024076E91
:104CF000E86A0120086EE86A022007C0E9FF08C0E0
:104D0000F3FF29EC00F0076E05C0E9FF06C0EAFFDB
:104D100007C0EFFF042AE0D704C000F004500401EC
:104D20001D6F400E1C151C6F016A1CBD012A01502D
:104D3000D880E866D890016A01360150010BE8403E
:104D4000E840F46E1C51BF0BF4101C6F880E1C1150
:104D50001C6F0050E4CF08F0E4CF07F0E4CF06F07A
:104D6000E4CF05F0E4CF04F0E4CF03F0E4CF02F0A9
:104D7000E4CF01F0E4CF00F0E4CFD9FF120000C08F
:104D8000E5FF01C0E5FF02C0E5FF03C0E5FF050147
:104D90000051800A01E06BD003C500F002C501F0AC
:104DA0000050010A0FE1010E0201A26F000E020184
:104DB000906F330E8F6FB80E8E6F120E0201996FC7
:104DC0009A6B55D00050020A17E1010E0201A26F42
:104DD000000E0201906F330E8F6FCA0E8E6FCC0ED5
:104DE000F66E330EF76E000EF86E0900F5CF99F2ED
:104DF0000900F5CF9AF23BD00050030A32E1010ED0
:104E00000201A26F0150030DF450026EF3CF01F0C6
:104E1000036A3A0E0126340E0222000E032201C05C
:104E2000F6FF02C0F7FF03C0F8FF0900F5CF8EF2CE
:104E30000900F5CF8FF20900F5CF90F28EC201F094
:104E40008FC202F090C203F001C0E9FF02C0F3FF7D
:104E5000035029EC00F0016E01C099F202019A6B37
:104E600006D00050060A03E1010E0201A26FE4CF52
:104E700003F0E4CF02F0E4CF01F0E4CF00F0120041
:104E800000C0E5FF01C0E5FF02C0E5FF03C0E5FF8C
:104E900004C0E5FF05C0E5FF06C0E5FF006A016A42
:104EA000026A036AB00E0224046E340E0320056EFB
:104EB000066A03BE0668000E062204C0F6FF05C09F
:104EC000F7FF06C0F8FF0900F5CF04F00900F5CFA1
:104ED00005F00450E56EE4EC2AF0046EF3CF05F023
:104EE000E6520550E56E0450E56E0150E56E005047
:104EF000E56E000EE56E340EE56EB80EE56E13EC51
:104F00002CF0070EE126020E0226D8B0032A004A32
:104F1000012A0150800F800F02E1040E005CD8A02E
:104F2000C1D7E56A640EE56E49EC29F0E652E65217
:104F3000000EE56E340EE56EC40EE56E13EC2CF03B
:104F4000030EE126E4CF06F0E4CF05F0E4CF04F051
:104F5000E4CF03F0E4CF02F0E4CF01F0E4CF00F0BF
:104F6000120000C0E5FF01C500F005010051600B13
:104F7000D8A461D00050050A09E1010E0201A26F18
:104F8000040E0201A56F02C59DF255D00050060A1D
:104F900003E1BFEC26F04FD00050090A12E1010EE8
:104FA0000201A26F02C5A6F20201A65104E1040E9D
:104FB0000201A56F40D0050E0201A56FFDEC2CF09B
:104FC0003AD00050080A0FE1010E0201A26F020E52
:104FD00002018F6FA60E8E6F800E906F010E020180
:104FE000996F9A6B28D0005003E1ACEC25F023D0E8
:104FF0000050010A03E00050030A03E1F2EC23F041
:105000001AD000500A0A11E1010E0201A26F050137
:10501000406B050E02018F6F400E8E6F800E906FF9
:10502000010E0201996F9A6B06D000500B0A03E142
:10503000010E0201A26FE4CF00F0120000C0E5FFF4
:1050400001C0E5FF02C0E5FF03C0E5FF04C0E5FFC6
:1050500005C0E5FF06C0E5FF07C0E5FFF29EF29C34
:105060006D6A6F6A716A726A736A746A756A766A5F
:10507000776A786A796A7A6A7B6A7C6A7D6A7E6A0C
:105080007F6A070EE56ED00EE56E49EC29F0E65218
:10509000E652140E6F6E0201A56B0201A46B0201B1
:1050A000A66B010E006E016A026A036A00C004F07A
:1050B00001C005F002C006F003C007F0002A04E3B7
:1050C000012A02E3024A032A0450051006100710C1
:1050D00009E00201A551050A05E093EC2DF0C7ECAB
:1050E0002CF0E4D7A19AA08AA28AF28EF28CE4CFA7
:1050F00007F0E4CF06F0E4CF05F0E4CF04F0E4CF0E
:1051000003F0E4CF02F0E4CF01F0E4CF00F01200AE
:1051100000C0E5FF04010451006E009E0050046FC2
:105120000051006E009E0050006F0201A76B02014B
:10513000A26B02019E6B0201996B9A6BB1EC27F096
:105140001F0E05010015010A02E19DEC29F0020184
:10515000A2510BE1400E0401016F000E026F050E1B
:10516000036F840E006F046F38D0050100AF26D0A6
:1051700002019A510501075D04E1020199510501FF
:10518000065D04E206C599F207C59AF2000EE56ACB
:1051900039EC20F0E652020E0201A76F400E040126
:1051A000016F000E026F050E036F800E006F400E40
:1051B000066F050E076FC80E046F0FD0010E0201B7
:1051C000A76F0401056BC80E046F400E016F400EFF
:1051D000026F050E036FC80E006F6D98E4CF00F0EC
:1051E0001200D9CFE5FFE1CFD9FF00C0E5FF01C034
:1051F000E5FF02C0E5FF03C0E5FF04C0E5FF05C011
:10520000E5FF06C0E5FF07C0E5FF020EDBCF00F0BB
:10521000030EDBCF01F0040EDBCF02F0050EDBCF77
:1052200003F00250046E0350056E066A076A0450CC
:10523000F86E0150046E0250056E0350066E076A48
:105240000450F76E0050F66E0900F5CF00F009002B
:10525000F5CF01F0026A0150046E036A056A00503E
:1052600003260550042204C0F3FF0350E4CF07F0E7
:10527000E4CF06F0E4CF05F0E4CF04F0E4CF03F090
:10528000E4CF02F0E4CF01F0E4CF00F0E4CFD9FFA7
:105290001200D9CFE5FFE1CFD9FF00C0E5FF01C083
:1052A000E5FF02C0E5FF03C0E5FF04C0E5FF05C060
:1052B000E5FF020EDBCF00F0030EDBCF01F02DEC9B
:1052C0002DF0026EF3CF03F0F4CF04F0E9CF05F038
:1052D000E56A010EE56E860EE56EA00EE56E0550E0
:1052E000E56E0450E56E0350E56E0250E56E8DEC00
:1052F00024F0026E080EE12600C004F001C005F0A3
:10530000FF0E002601220450051008E00250046E32
:10531000FD0E0426045064EC1AF0EED7E4CF05F03D
:10532000E4CF04F0E4CF03F0E4CF02F0E4CF01F0E7
:10533000E4CF00F0E4CFD9FF120000C0E5FF600E1B
:1053400005010015200A01E049D001C500F0005018
:1053500001E144D00050010A01E140D00050200A90
:1053600007E00050210A13E00050220A1FE036D067
:10537000020E02018F6F7C0E8E6F800E906F070EF3
:105380000201996F9A6B010E0201A26F27D0020EE3
:1053900002018F6F7C0E8E6F800E906F070E0201E0
:1053A000996F9A6B010E0201A26F18D0050102518C
:1053B000030A04E1010E0201986F02D00201986B0A
:1053C000020E02018F6F740E8E6F800E906F080EAA
:1053D0000201996F9A6B010E0201A26FE4CF00F0F7
:1053E0001200D9CFE5FFE1CFD9FF00C0E5FF01C032
:1053F000E5FF02C0E5FF03C0E5FF04C0E5FF05C00F
:10540000E5FF020EDBCF94F2030EDBCF95F2040E24
:10541000DBCF96F2050EDBCF00F0060EDBCF01F0FE
:10542000070EDBCF02F0080EDBCF03F0090EDBCF57
:1054300004F00A0EDBCF05F00550E56E0450E56E72
:105440000350E56E0250E56E0150E56E0050E56ECA
:10545000800EE56E020EE56E940EE56E4BEC10F0DC
:10546000006E090EE1260050E4CF05F0E4CF04F011
:10547000E4CF03F0E4CF02F0E4CF01F0E4CF00F09A
:10548000E4CFD9FF120000C0E5FF6CB422D03C0E7F
:1054900004010015006E0040E8403F0B0D0A03E1D7
:1054A00088EC28F03ED00201A751010A0FE1000E5E
:1054B000E56A57EC23F0E652040100AD03D0880EF4
:1054C000006F2FD0C80E0401006F2BD0F2EC2DF02E
:1054D00028D0006A6CB4002A0050010A22E16E5004
:1054E0000BE10201A551040A07E102C56EFF6E50EF
:1054F00003E1030E0201A56F0201A751020A0FE1A9
:10550000000EE56A39EC20F0E652040104AD03D048
:10551000880E046F06D0C80E0401046F02D0F2ECAE
:105520002DF0E4CF00F01200D9CFE5FFE1CFD9FF95
:1055300000C0E5FF01C0E5FF02C0E5FF03C0E5FFD5
:1055400004C0E5FF05C0E5FF020EDBCF8BF2030EC2
:10555000DBCF8CF2040EDBCF8DF2050EDBCF00F03B
:10556000060EDBCF01F0070EDBCF02F0080EDBCF1B
:1055700003F0090EDBCF04F00A0EDBCF05F0055077
:10558000E56E0450E56E0350E56E0250E56E015085
:10559000E56E0050E56E000EE56AE56AE56A4BECE3
:1055A00010F0006E090EE1260050E4CF05F0E4CFC4
:1055B00004F0E4CF03F0E4CF02F0E4CF01F0E4CF55
:1055C00000F0E4CFD9FF1200D9CFE5FFE1CFD9FF3A
:1055D00000C0E5FF01C0E5FF02C0E5FF03C0E5FF35
:1055E000020EDBCF00F00D0E005C0BE3150E005C2D
:1055F00008E2F30E0024016E0144E844FC0BC26E85
:1056000007D0060E005C04E20044E844FC0BC26EC6
:10561000C280090E006E016A0000FF0E0026012202
:1056200000500110F9E1C282C2B2FED7C4CF00F02F
:10563000016A0050036E026AC3CF00F0016A005095
:10564000022601500322C29003C0F3FF0250E4CFB0
:1056500003F0E4CF02F0E4CF01F0E4CF00F0E4CFB8
:10566000D9FF1200380EF66E5C0EF76E000EF86E63
:105670000900F550056E0900F550066E055002E16F
:1056800006503BE00900F550006E0900F550016E30
:105690000900F550026E09000900F550E96E090095
:1056A000F550EA6E090009000900F550036E090083
:1056B000F550046E09000900F6CF07F0F7CF08F0A7
:1056C000F8CF09F000C0F6FF01C0F7FF02C0F8FFF5
:1056D000035002E1045007E00900F550EE6E0306A6
:1056E000F8E20406F9D707C0F6FF08C0F7FF09C0C3
:1056F000F8FF0506C4E20606C5D71200D9CFE5FFBC
:10570000E1CFD9FF00C0E5FF01C0E5FF02C0E5FF22
:1057100003C0E5FF020EDBCF00F0030EDBCF01F08C
:10572000040EDBCF02F000500B0A17E000500C0A09
:1057300025E10C0EBD6ED8900230036E0130006E74
:10574000D890033200320050BE6E0150006E030E3E
:1057500000160038F00BBD1211D00C0EBA6ED890A6
:105760000230036E0130006ED890033200320050D8
:10577000BB6E030E01160138F00BBA129E92E4CFF5
:1057800003F0E4CF02F0E4CF01F0E4CF00F0E4CF87
:10579000D9FF1200D9CFE5FFE1CFD9FF00C0E5FF67
:1057A00001C0E5FF02C0E5FF03C0E5FF04C0E5FF5F
:1057B000050ED924006E000EDA20016E800E026EF6
:1057C000030E0026000E01220222020ED924036ECF
:1057D000000EDA20046E0250E56E0150E56E0050B6
:1057E000E56E070EDBCFE5FF060EDBCFE5FF050E0E
:1057F000DBCFE5FF800EE56E0450E56E0350E56EED
:105800004BEC10F0006E090EE1260050E4CF04F0DE
:10581000E4CF03F0E4CF02F0E4CF01F0E4CF00F0F6
:10582000E4CFD9FF1200D9CFE5FFE1CFD9FF00C007
:10583000E5FF01C0E5FF02C0E5FF020ED924006EBE
:10584000000EDA20016E800E026E030E0026000E9E
:10585000012202220250E56E0150E56E0050E56E15
:10586000040EDBCFE5FF030EDBCFE5FF020EDBCF3F
:10587000E5FF800EE56E020EE56E000EE56EF1ECC2
:1058800029F0006E090EE1260050E56E800EE56EEF
:10589000020EE56E000EE56E36EC26F0040EE126F3
:1058A000E4CF02F0E4CF01F0E4CF00F0E4CFD9FF81
:1058B000120000C0E5FF01C0E5FFE56A1D0EE56EC0
:1058C0005AEC1DF0E652E652006A016AE56A1D0EC6
:1058D000E56E2BEC1CF0E652E652E56A640EE56ECE
:1058E00049EC29F0E652E652010EE56E1D0EE56E1A
:1058F0002BEC1CF0E652E652E56A640EE56E49ECCC
:1059000029F0E652E652004A012A0150800F800F2A
:1059100002E1040E005CDAE3E4CF01F0E4CF00F032
:105920001200D9CFE5FFE1CFD9FF00C0E5FF020E9D
:10593000DBCF00F00201A551050A24E102019851D4
:1059400021E004011CBF1ED000500501C06F010EF4
:1059500004011D6F400E1C151C6F006A1CBD002A3F
:105960000050D880E866D890006A00360050010BDD
:10597000E840E840F46E1C51BF0BF4101C6F880E19
:105980001C111C6FE4CF00F0E4CFD9FF120000C05F
:10599000E5FF0201A5512EE068A403D069B42CEC08
:1059A0002EF0006A6DB2002A0050010A23E068A0C0
:1059B00003D069B058EC2DF068A803D069B8D2ECD8
:1059C0002DF068AC03D069BC0DEC10F068AA03D0D0
:1059D00069BAE3EC2DF068A202D069B26892030EB6
:1059E0000201A55D07E368A605D069A603D043ECD4
:1059F0002AF06896E4CF00F0120002017C6BC20E20
:105A00007D6F010E7E6F7F6B806B816B080E826FE6
:105A10000201746B756B766B776B786B796B7A6B55
:105A20007B6B1A0E726E1E0E736E400E0401166FA3
:105A3000020E176F400E146F196F800E1A6F050E4D
:105A40001B6F880E186FC00E1E6F050E1F6F400E65
:105A50001C6F050E0201A56F120000C0E5FF01C01A
:105A6000E5FF02C0E5FF03C0E5FF89EC1EF0006E14
:105A7000F3CF01F0F4CF02F0E9CF03F0D890033276
:105A8000023201320032D890033202320132003247
:105A900003C0E9FF02C0F4FF01C0F3FF0050E4CFF0
:105AA00003F0E4CF02F0E4CF01F0E4CF00F0120005
:105AB00000C0E5FF6A6A686A9F0E6B6E7B0E696EB6
:105AC0006E6A160E706E006A68B6002A0050010AEF
:105AD00002E16896F8D76D98F2EC2DF00201A46B04
:105AE0000201A36B0201A66B030E0201A56FE4CFB6
:105AF00000F01200D0B202D0930ED012D350030B9C
:105B0000800F7E0F02E3D3A4FED7A9EC2DF023EC87
:105B10002EF01EEC28F014EC2EF059EC2CF040EC9A
:105B200027F0FDD712006DB606D06D6A696A6D86E2
:105B3000010E0201A56F0201A551010A09E16DBA2A
:105B400007D0686A696A69806988020E0201A56FD8
:105B50001200896A8A6A400E8B6E8C6A8D6A926A1C
:105B6000936A949094929494949C949E956A966A65
:105B7000806A816A826A836A846A1200D9CFE5FFEB
:105B8000E1CFD9FF00C0E5FF020EDBCF00F00050EF
:105B900004E00050010A01E1C188E4CF00F0E4CF45
:105BA000D9FF1200D9CFE5FFE1CFD9FF698468980A
:105BB0006D82A19AF290A08AF2860300A09AF296D2
:105BC000E4CFD9FF120000C0E5FF006A70B0002AE0
:105BD0000050010A03E1F2EC2DF07090689AE4CFD6
:105BE00000F012000201A76B400E0401016F000ECD
:105BF000026F050E036F880E006F046B120011EE2A
:105C0000FFF021EEFFF0F86AA68EA69C32EC2BF096
:105C10007AEC2DF0FFD7A1AA06D0A19AC7EC2CF000
:105C2000689C68906A6A12002F0E9212070E9612F4
:105C3000C16EBD0EC06E12000100605C00009702D4
:105C40000000020000000F0EC16E070EB46E1200BD
:105C5000CB68040ECA6E12006D92699468941200AB
:0A5C600000001200120012001200F2
:00000001FF
