:1000000033EF00F0F00E936E000E956E936A8A6ADD
:10001000956A8C6A6FEF00F0065202E08C80959032
:10002000075202E08C849594085202E08C829592EB
:100030000B6A0B50630816E30B50065C02E18C90D0
:1000400095900B50075C02E18C9495940B50085CE2
:1000500002E18C9295920400100E006E002EFED7E5
:100060000B2AE7D7000CF86AD09EEA6AE96A049086
:100070000482049404960498056A066A076A086A6A
:10008000C150C00B0F09C16E070EB46EC150C00B3A
:100090000F09C16EC090C092C094C09EC280C69A23
:1000A000949E93809392010EC66E000EC76ED190FF
:1000B000800ED56ECD6A000ECA6E000ECB6E948493
:1000C000BD6AB76AB66A070EB46E9250926E0400AB
:1000D000100E006E002EFED7B450A19C93D704A240
:1000E000ACD08A8693968A9493948A9293928A90BB
:1000F0009390938E81AE02D0310E096E938C81ACB9
:1001000002D0340E096E938A81AA02D0370E096E8E
:10011000938881A802D02D0E096E8A9693968A84C0
:1001200093948A9293928A909390938E81AE02D008
:10013000320E096E938C81AC02D0350E096E938A13
:1001400081AA02D0380E096E938881A802D0300EA1
:10015000096E8A9693968A9493948A8293928A904F
:100160009390938E81AE02D0330E096E938C81AC46
:1001700002D0360E096E938A81AA02D0390E096E1A
:10018000938881A802D02B0E096E8A9693968A9442
:1001900093948A9293928A809390938E81AE02D0A8
:1001A000410E096E938C81AC02D0420E096E938A87
:1001B00081AA02D0430E096E938881A802D0440E12
:1001C000096E2B0E095CE70F38E2190F41EF01F0C1
:1001D000056A33D00B0E056E30D0160E056E2DD08D
:1001E000210E056E2AD02C0E056E27D0370E056E17
:1001F00024D0420E056E21D04D0E056E1ED0580E35
:10020000056E1BD0640E056E18D0010E052615D0A4
:10021000010E055E12D004840496049806C005F011
:100220000CD004860494049807C005F006D0048816
:100230000494049608C005F000D0200E096E055005
:10024000C808D8A0056A0550640802E2640E056E6D
:1002500004A402D005C006F004A602D005C007F031
:1002600004A802D005C008F004A002D0D5DE07D053
:100270000A6A0A50630803E3CFDE0A2AFAD72FD7A7
:100280000300E824F76AF7369D0FF66E020EF72298
:100290000A00F550FA6E0800F550F96E0A023A02AB
:1002A00010023A023A02D001D401DA01E001E6017B
:1002B000EC01F201F801FE0104023A023A023A02AC
:0E02C0003A023A023A023A02160222022E02D4
:020000040030CA
:0E00000024CC280E0083A10000C00FE00F40AA
:00000001FF
;PIC18F4550
;CRC=AC4A  CREATED="08-oct-14 17:50"
