:1000000000308A0004280000FF238316900000308F
:100010008A00F3280A108A100A118207743469349E
:100020006D34653420343D34203425344C347534FB
:10003000003483168512831285120830A10020280F
:100040000000A1173128A113B30C03188516031C57
:100050008512211731282113A10B24282F280000F5
:1000600085161C308400840B33283628A11B2328D6
:10007000211B2B28080083183F283B308400A00157
:10008000A101A201A301BB01BC01BD01BE013A084F
:1000900039043804370403197D282030BF000310C9
:1000A000B30DB40DB50DB60DBB0DBC0DBD0DBE0D24
:1000B0003A083E02031D662839083D02031D6628E2
:1000C00038083C02031D662837083B02031C7728CA
:1000D0003708BB023808031C380FBC023908031C60
:1000E000390FBD023A08031C3A0FBE020314A00DDB
:1000F000A10DA20DA30DBF0B4F283B088000840A61
:100100003C088000840A3D088000840A3E08800084
:1001100008000408AD003B30B2009A30B100CA308C
:10012000B000AF010A30AE008314293084002C08DF
:10013000B6002B08B5002A08B4002908B30032081D
:10014000BA003108B9003008B8002F08B7003B20CA
:100150002108A008031DBF282E08013A0319BF2853
:100160002D080319C0280F392E020319B9280318C6
:10017000C528AD1BC5282D1BC0282030C128AD01C6
:100180003030A0072008B300192083103208B600D1
:100190003108B5003008B4002F08B300BA01B90126
:1001A000B8010A30B7003B202308B2002208B10092
:1001B0002108B0002008AF00AE0B94285529293043
:1001C000840000080319F2280130A100A001A00B4F
:1001D000E728A10BE6284A30A000A00BED28F02864
:1001E000800BE4285E2984011F3083058316851265
:1001F000831285161F1383161F109F101F119F1146
:100200000730831299001F1383161F109F101F11B0
:100210009F111F129F121F1383129F131F14831607
:100220000108C7390838810083129001073099000E
:1002300083160508850003308312A000A00B1E2939
:1002400019088C11A801A701A601A50183160514A0
:100250008312051C262983160514831205182B29E1
:1002600083160514831205183F290130A5070318CA
:10027000A60A0319A70A0319A80A00003029A90130
:1002800029080A20A90AA000B30019200730290272
:10029000031D4029413084002808AC002708AB002A
:1002A0002608AA002508A90089280D30B3001920C6
:1002B0000A30B30019206430A900DF282229630026
:02400E00843FED
:00000001FF
;PIC12F675
;CRC=AB9A  CREATED="14-dic-15 17:21"
