:1000000000308A00EC2800000A108A100A118207CA
:10001000743469346D34653420343D3420342534EF
:100020004C347534003483168512831285120830DF
:10003000A1001A280000A1172B28A113B30C031844
:100040008516031C851221172B282113A10B1E28AE
:100050002928000085163F308400840B2D280000DD
:10006000A11B1D28211B25280800831839283B3097
:100070008400A001A101A201A301BB01BC01BD013B
:10008000BE013A08390438043704031977282030B0
:10009000BF000310B30DB40DB50DB60DBB0DBC0DF7
:1000A000BD0DBE0D3A083E02031D602839083D0211
:1000B000031D602838083C02031D602837083B02F6
:1000C000031C71283708BB023808031C380FBC0218
:1000D0003908031C390FBD023A08031C3A0FBE024F
:1000E0000314A00DA10DA20DA30DBF0B49283B08C1
:1000F0008000840A3C088000840A3D088000840A4D
:100100003E08800008000408AD003B30B2009A3081
:10011000B100CA30B000AF010A30AE0083142930FC
:1001200084002C08B6002B08B5002A08B400290862
:10013000B3003208BA003108B9003008B8002F08FF
:10014000B70035202108A008031DB9282E08013A60
:100150000319B9282D080319BA280F392E020319DB
:10016000B3280318BF28AD1BBF282D1BBA28203089
:10017000BB28AD013030A0072008B3001320831046
:100180003208B6003108B5003008B4002F08B300BB
:10019000BA01B901B8010A30B70035202308B2000E
:1001A0002208B1002108B0002008AF00AE0B8E2855
:1001B00063292930840000080319EB280230A100CC
:1001C000A001A00BE128A10BE0289730A000A00B14
:1001D000E728800BDE286C2984011F3083057130ED
:1001E00083168F000F088512831285161F1383163E
:1001F0001F109F101F119F1107308312990071303B
:1002000083168F000F0883121F1383161F109F1071
:100210001F119F151F129F121F1383129F171F1468
:1002200083160108C7390838810083129001003015
:10023000A10006389200FF30831692000511831248
:1002400005110C30950007309900831605088500CC
:1002500006308312A000A00B2B29000019088C1176
:10026000A801A701A601A501831605148312051C88
:1002700034298316051483120518392983160514A9
:10028000831205184D290130A5070318A60A031982
:10029000A70A0319A80A4C293E29A9012908042004
:1002A000A90AA000B300132007302902031D4E291C
:1002B000413084002808AC002708AB002608AA00BB
:1002C0002508A90083280D30B30013200A30B3009D
:0C02D00013206430A900D92830296300F5
:02400E00C430BC
:00000001FF
;PIC12F683
;CRC=DA12  CREATED="14-dic-15 17:26"
