:1000000000308A0046280000AC012B082C0203189F
:100010004528A80803191028051483160510831213
:10002000A908031917288514831685108312AA08B6
:1000300003191E2805158316051183120130AD0022
:100040002D08643C031C43282D08280203182C2883
:1000500005108316051083122D0829020318342871
:1000600085108316851083122D082A0203183C2858
:1000700005118316051183120630A000A00B3E283F
:100080000000AD0A2028AC0A0528B72884011F30DB
:100090008305713083168F000F0883121F13831698
:1000A0001F109F101F119F1107308312990071308C
:1000B00083168F000F0883121F1383161F109F10C3
:1000C0001F119F111F129F121F1383129F171F14BE
:1000D00083160108C7390838810083129001003067
:1000E000A10006389200FF30831692000515831296
:1000F00095010730990083160508850006308312A4
:10010000A000A00B8128000019088C11383083163C
:1001100085008312A501A601A70183168516831207
:10012000851E94281930A507831605168312051E0F
:100130009B281930A607831685158312851DA228D2
:100140001930A7072508643C031CA5012608643C58
:10015000031CA6012708643C031CA7012508A8006E
:100160002608A9002708AA006430AB0004288D28BF
:0201700063002A
:02400E00C430BC
:00000001FF
;PIC12F683
;CRC=3D0D  CREATED="18-ago-15 21:05"
