:1000000016EF00F0EA6A090EE96EEF500EE00F0EEF
:10001000016E006A002EFED7012EFBD78F0E006EF8
:10002000002EFED70000EF2EF2D7000CF86AD09E0B
:10003000EA6AE96AC150C00B0F09C16E070EB46EBF
:10004000C150C00B0F09C16EC090C092C094C09E39
:10005000C2809698C69A949E93809392010EC66E23
:10006000000EC76ED190800ED56ECD6A000ECA6E9E
:10007000000ECB6E070EB46E9250926E270E006E7D
:10008000002EFED700D0B450A19CB56A000E926E2F
:10009000946E956E010E056E0550020815E3946A84
:1000A000FF0E8B6E020E086EFA0E096EABDF082E85
:1000B000FBD7946A8B6A020E086EFA0E096EA2DFF5
:1000C000082EFBD7052AE8D7076A066A946A8B6A66
:1000D000062AD8B4072A0650E50805E107500308A8
:1000E00002E18B8094900650E60805E10750030872
:1000F00002E18B8294920650E70805E1075003085D
:1001000002E18B8494940750020809E2FF0A03E19C
:100110000650E70804E2076A066A946A8B6A270EAB
:0C012000006E002EFED700D0D3D70300E5
:020000040030CA
:0E000000200E390E0087810000400FE00F40F7
:00000001FF
;PIC18F4550
;CRC=B444  CREATED="06-ene-15 21:48"
