:1000000000308A0004280000FF238316900000308F
:100010008A00FA280A108A100A11820778342034DC
:100020003D342034253475340934203425343234B9
:10003000583420340034A7018510831685108312AC
:100040008514831685108312A8012808073C031C19
:10005000562805108316051005158312051D402826
:100060002808073CA9000130A0002908A1000319B5
:100070003D280310A00DA10B39282008A704502803
:100080002808073CA9000130A0002908A100031995
:100090004D280310A00DA10B49282008FF3AA70501
:1000A0000514831605108312A80A25282708A10025
:1000B0002B2983168512831285120830A10060282F
:1000C0000000A1177128A113A90C03188516031CA1
:1000D0008512211771282113A10B64286F280000B5
:1000E00085161C308400840B73287628A11B632896
:1000F000211B6B2808002A08A10129020318832864
:100100002908A0008F28A0010830AB00A90DA00D80
:100110002A0820020318A000A10DAB0B86280800B6
:1001200021082708A9006430AA007B202008A70026
:1001300021083030031DA328A81CAA28A819AA2822
:10014000281A2030A628A81128122814A10721084F
:10015000A90059202708A9000A30AA007B202008FE
:10016000A70021083030031DBB28A819BF28281C70
:10017000BF28281A2030A1072108A90059203030B3
:10018000A7072708A90059203D29A81BD7280F3009
:10019000A000270EA0050A3020020318D228303014
:1001A000A007D4282808A0072008A90059200F304C
:1001B000A7050A3027020318DF283030E128A813EA
:1001C0002808A7072708A9005920482927308400B4
:1001D00000080319F9280130A100A001A00BEE28A6
:1001E000A10BED284A30A000A00BF428F728800BC3
:1001F000EB28712984011F30830583168512831231
:1002000085161F1383161F109F101F119F11073093
:10021000831299001F1383161F109F101F119F1127
:100220001F129F121F1383129F131F14831601089E
:10023000C73908388100831290010730990083166E
:100240000508850003308312A000A00B252919089A
:100250008C11A5011B282108A500A70127080A2049
:10026000A70AA000A900592004302702031D2E2947
:100270002508A7001B30A80090280930A9005920A4
:100280002030A90059202508A7003730A800C5282C
:100290002030A9005920A6012608073C031C682924
:1002A0002608073CA7002508A0002708A10003197D
:1002B0005D290310A00CA10B5929201C63293130A2
:1002C000A900592066293030A9005920A60A4C29D6
:1002D0000D30A90059200A30A90059206430A70028
:0602E000E6282A29630054
:02400E00843FED
:00000001FF
;PIC12F675
;CRC=3CCD  CREATED="29-nov-15 10:22"
