:1000000001308A00B3290000F701F801420803100B
:100010004318F707F70CF80CC318F707F70CF80CA0
:100020004319F707F70CF80CC319F707F70CF80C8E
:10003000431AF707F70CF80CC31AF707F70CF80C7C
:10004000431BF707F70CF80CC31BF707F70CF80C6A
:100050000800BE01BC08031D31283B083E020318FE
:10006000DE28BF013F08023C031CDC28C001400819
:10007000023C031C9C283D08FB3E03186328053EF8
:10008000DF28C10163280130C10063280230C100AC
:1000900063283F08C2000330C300042040087807EB
:1000A000203E840083130008C10063283F08C2007B
:1000B0000330C300042040087807293E84008313DE
:1000C0000008C1006328400803196D28013A03198C
:1000D0007C28033A03198B289A28410B73280617AA
:1000E0008316061383124108023C031D7B288615E4
:1000F0008316861183129A28410B8228861783164D
:10010000861383124108023C031D8A2806168316B3
:10011000061283129A28410B91280517831605139E
:1001200083124108023C031D992886168316861205
:1001300083129A28C00A3728BF08031DA328061572
:100140008316061183123F0BA92886148316861086
:1001500083123F08023C031DB128061483160610C3
:1001600083120A30F700F70BB328B628061383165C
:1001700006138312861383168613831205138316C0
:1001800005138312861183168611831206128316B5
:1001900006128312861283168612831206118316A4
:1001A000061183128610831686108312061083169A
:1001B00006108312BF0A3228BE0A2A2808000A1035
:1001C0008A100A11820741284328462849285628C0
:1001D0000A30BA0005148316051085158312851D93
:1001E000F3280130BA00831605168312051EFA287B
:1001F0000230BA00831685168312851E012903304A
:10020000BA00BC010130BB003208BD002920051036
:1002100083160510831285148316851085158312A5
:10022000851D14290430BA00831605168312051E95
:100230001B290530BA00831685168312851E2229D4
:100240000630BA00BC010130BB003208BD002920D5
:1002500085108316851083120515831605118515E3
:100260008312851D35290730BA00831605168312BF
:10027000051E3C290830BA00831685168312851E98
:1002800043290930BA00BC010130BB003208BD006F
:10029000292005118316051185178312851BBA01C4
:1002A0003A08F80008003D08F8013C0203185B29F1
:1002B0003C08F7006729F7010830BE00BC0DF70DB8
:1002C0003D0877020318F700F80DBE0B5E293A2AA5
:1002D0003208003A03197329033A03198229073AAD
:1002E0000319842986293A08033A03197B29073A16
:1002F00003197E2981290330B20081290430B2001C
:1003000081298629B2018629B201862908003C107C
:10031000BA013A08023C031CB229BB013B08023C6B
:10032000031CB0293A08C2000330C30004203B0874
:100330007807293E840083138008031DAE293C18EA
:10034000AE293A08C2000330C30004203B087807F6
:10035000293E84008313350880003C14BB0A8E2993
:10036000BA0A8929122B840183131F30830583164F
:100370008E1503308312B200B301B401B50107300A
:100380009F00A001A101A201A301A401A501A60152
:10039000A701A801A901AA01AB01AC01AD01AE0101
:1003A000AF01B001B101B8306500003066008316BE
:1003B0008E150108C739083881008312900100307A
:1003C000F800920000308316920086158312970180
:1003D00007309F008316050885000330F700F70BF0
:1003E000EF2983121F080C138316850183128501E0
:1003F00083168601831286010130B6003408330764
:10040000083C031C282BB501B508031DF72AE8207A
:100410007808B70037080A3C0319072AE82078084B
:10042000370203190E2A370803191A2AF83A031952
:10043000312AF62A340833020319202A0030212AEF
:100440000130003A031D2E2A360B2A2A0230B6004C
:10045000B2002D2A0130B600B200302A0430B200BA
:10046000F62A0330B20001303702BB00BC00033073
:10047000BD0053297808B8003708003C0318472A04
:100480003708033C031C472A01303702B9003708FC
:10049000033C0318522A3708063C031C522A043036
:1004A0003702B9003708063C03185D2A3708093CB3
:1004B000031C5D2A07303702B9003808C200033038
:1004C000C300042039087807203E84008313800885
:1004D000031DF52A3808C2000330C3000420390880
:1004E0007807203E8400831336088000210820020C
:1004F00003197C2A00307D2A01302202031D852A3F
:10050000A0080319852A3608B50024082302031918
:100510008B2A00308C2A01302502031D942AA4085E
:100520000319942A3608B5002708260203199A2AC7
:1005300000309B2A01302802031DA32AA8080319B2
:10054000A32A3608B500230820020319A92A00307F
:10055000AA2A01302602031DB22AA0080319B22AD2
:100560003608B500240821020319B82A0030B92A38
:1005700001302702031DC12AA4080319C12A360825
:10058000B500250822020319C72A0030C82A013005
:100590002802031DD02AA8080319D02A3608B5005E
:1005A000240820020319D62A0030D72A0130280255
:1005B000031DDF2AA4080319DF2A3608B500240822
:1005C00026020319E52A0030E62A01302202031D23
:1005D000EE2AA4080319EE2A3608B500B60A360832
:1005E000033C031DF52A0130B600F62A042AE82050
:1005F0007808B7000330BA00682137080A3C0319AD
:10060000F72AE82078083702031D0A2B0330BA00C6
:100610006821012B350B0D2BB30A3508023C031959
:10062000B40A87290430B200E8207808B700043003
:10063000BA00682137080A3C0319142BE82078080F
:100640003702031D272B0430BA0068211E2BFE2918
:10065000330834020318392BBC010130BB00BD0044
:100660002920BC010130BB000430BD0029202C2B07
:10067000572B34083302031D4A2BBC010130BB0049
:10068000BD012920BC010130BB000430BD00292080
:100690003D2B572BBC010130BB000230BD0029208F
:1006A000BC010130BB000430BD0029204A2B63008F
:02400E00103F61
:00000001FF
;PIC16F628A
;CRC=9578  CREATED="24-Jun-17 21:44"
