:1000000002308A00982A00000A108A100A1182071A
:1000100028340C34013406340C00C837EC30A026E8
:100020007537E4370001CD32E33074396F37E93189
:1000300061000C00C3377239E531F43721004937CC
:10004000E3377239E531F43700002B308400831335
:100050000008031939280130F800F701F70B2E28A2
:10006000F80B2D284A30F700F70B34283728800B7F
:100070002B28080032183E2806123F280616831641
:1000800006128312B218462886124728861683164F
:100090008612831232194E2806134F28061783162C
:1000A00006138312B219562886135728861783160B
:1000B0008613000083120614831606105F2883122D
:1000C00006108316061083120800B3018316061665
:1000D00000308312061A0130B304831686160030EE
:1000E0008312861A0130F7000310F70D7708B30466
:1000F0008316061700308312061B0130F700F70D38
:10010000F70DFC30F7057708B30483168617003027
:100110008312861B0130F700F70DF70DF70DF8304D
:10012000F7057708B3043308F800080083160610B3
:100130008610061183128610831686100616861600
:100140000617861783120615831606110000831200
:100150000614831606100000831265207808B2008A
:10016000061083160610000083120614831606106C
:100170000000831265207808B1000610831606106F
:1001800006128612061386138312320EF700F03021
:10019000F70577083104F8007808B100B11FD228BC
:1001A00083169E28AF08031DD7288610D8288614EA
:1001B00083168610000083120611831606110000B4
:1001C00083120610831606108312300EB1000F3012
:1001D000B1053108B2003A2030080F39B100B20041
:1001E0003A2008008316061286120613861306109C
:1001F000861006118312861083168610831206114C
:100200008316061183120610831606100F30831210
:10021000AB0025200130A7002708033C031C1A2946
:100220000330B2003A20B2013A200530AB0025205D
:10023000A70A0C290230B2003A20B2013A20053058
:10024000AB002520A7012708033C031C3029270801
:100250000420A800AF012808B0009620A70A23298F
:100260008A110A12DE2A2C0B362939294030AD00BA
:100270003A29AD0101302B02AD072D088038AE00C0
:10028000AF012E08B000962008002A08073A03198B
:1002900053290B3A03195829063A03196029023ADF
:1002A000031966296B290130AB00AC003321712999
:1002B000AF010130B00096200230AB00252071293B
:1002C0000130AB000230AC0033217129AF01103096
:1002D000B000962071290130AF002A08B0009620A6
:1002E00071290800831603178C170C1400000000F6
:1002F00083120C087F390319B6290313A7000317CB
:100300000D080313A80003170F080313A9002708FB
:10031000AA004521280803178D0003132908031795
:100320008F0083168C170C140000000083120C0D34
:100330000E0D7F390319B6290313A70003170D0803
:100340000313A80003170F080313A9002708AA0026
:100350004521280803178D000313290803178F0070
:100360008D0A03198F0A0313722903170313080058
:100370001430A00088118316881183120814831684
:10038000081008168312081EC7290730A00083161C
:1003900088168312881ECE290830A00083160817FD
:1003A0008312081FD5290930A0006430AB00252036
:1003B00008108316081083128814831688100816F4
:1003C0008312081EE5290430A000831688168312C4
:1003D000881EEC290530A000831608178312081F19
:1003E000F3290630A0006430AB0025208810831666
:1003F0008810831208158316081108168312081E28
:10040000032A0130A000831688168312881E0A2A48
:100410000230A000831608178312081F112A033028
:10042000A0006430AB002520081183160811831248
:1004300088158316881188168312881AA0016430E3
:10044000AB0025202008F8008A110A121B2B2A086D
:10045000F801290203182F2A2908F7003B2AF7017F
:100460000830AB00A90DF70D2A0877020318F70032
:10047000F80DAB0B322A080078082708A900643071
:10048000AA0027227708A70078083030031D4F2ADA
:10049000A81C562AA819562A281A2030522AA81110
:1004A00028122814F8077808AA0045212708A9006F
:1004B0000A30AA0027227708A70078083030031DE9
:1004C000672AA8196B2A281C6B2A281A2030F807DB
:1004D0007808AA0045213030A7072708AA0045213F
:1004E0008A110A12232BF701F80127080310281894
:1004F000F707F70CF80CA818F707F70CF80C2819F1
:10050000F707F70CF80CA819F707F70CF80C281ADE
:10051000F707F70CF80CA81AF707F70CF80C281BCC
:10052000F707F70CF80CA81BF707F70CF80C0800F6
:10053000840183131F308305FF30A10083161F142D
:100540009F141F159F1107309C001F149F141F1527
:100550009F111F1383121F139F1383169F13831260
:100560001F149412A11221088316870083122116EA
:100570002108831687008312A111210883168700A2
:100580000130831294000030831694000108C739AB
:1005900008388100831290010030F800920000308A
:1005A0008316920007309C00050885000330F70091
:1005B000F70BD82A1C0883120D13F2280C300317EE
:1005C0008D0000308F00031372210D3003178D0052
:1005D00000308F00031372210130AB000230AC00F9
:1005E0003321133003178D0000308F000313722165
:1005F0000A30A700FA30AB002520A70BFA2A1930E1
:1006000003178D0000308F00031372210130AB00FF
:10061000AC0033210130A4007130A300A601A50174
:100620000130A2002208033C031C422B2008143C8A
:10063000031D1E2BB8297808A000162B2008A70040
:100640001B30A8003C2A220B2D2B2008A700643069
:10065000A8007322A6017808A5002208023C031D09
:10066000392B2008A7000A30A8007322A6017808B9
:10067000A5002208033C031D402BA6012008A5006D
:10068000A20A122B0130AB000230AC003321230848
:100690002502031D642B24082602031D642B1A3037
:1006A00003178D0000308F000313722107142110EF
:1006B00021088316870078308312A700FA30AB0038
:1006C0002520A70B5E2B782B1F3003178D000030E1
:1006D0008F00031372218714A1102108831687004D
:1006E000F0308312A700FA30AB002520A70B732B44
:1006F0000710211021088316870083128710A1108C
:0C0700002108831687008312DE2A6300A4
:02400E00713F00
:00000001FF
;PIC16F877A
;CRC=EFAC  CREATED="15-jul-15 17:20"
